{
  "address": "0xCf7Ed3AccA5a467e9e704C703E8D87F634fB0Fc9",
  "abi": [
    {
      "inputs": [],
      "stateMutability": "nonpayable",
      "type": "constructor"
    },
    {
      "anonymous": false,
      "inputs": [
        {
          "indexed": true,
          "internalType": "address",
          "name": "owner",
          "type": "address"
        },
        {
          "indexed": true,
          "internalType": "address",
          "name": "approved",
          "type": "address"
        },
        {
          "indexed": true,
          "internalType": "uint256",
          "name": "tokenId",
          "type": "uint256"
        }
      ],
      "name": "Approval",
      "type": "event"
    },
    {
      "anonymous": false,
      "inputs": [
        {
          "indexed": true,
          "internalType": "address",
          "name": "owner",
          "type": "address"
        },
        {
          "indexed": true,
          "internalType": "address",
          "name": "operator",
          "type": "address"
        },
        {
          "indexed": false,
          "internalType": "bool",
          "name": "approved",
          "type": "bool"
        }
      ],
      "name": "ApprovalForAll",
      "type": "event"
    },
    {
      "anonymous": false,
      "inputs": [
        {
          "indexed": true,
          "internalType": "address",
          "name": "from",
          "type": "address"
        },
        {
          "indexed": true,
          "internalType": "address",
          "name": "to",
          "type": "address"
        },
        {
          "indexed": true,
          "internalType": "uint256",
          "name": "tokenId",
          "type": "uint256"
        }
      ],
      "name": "Transfer",
      "type": "event"
    },
    {
      "inputs": [
        {
          "internalType": "address",
          "name": "to",
          "type": "address"
        },
        {
          "internalType": "uint256",
          "name": "tokenId",
          "type": "uint256"
        }
      ],
      "name": "approve",
      "outputs": [],
      "stateMutability": "nonpayable",
      "type": "function"
    },
    {
      "inputs": [
        {
          "internalType": "address",
          "name": "owner",
          "type": "address"
        }
      ],
      "name": "balanceOf",
      "outputs": [
        {
          "internalType": "uint256",
          "name": "",
          "type": "uint256"
        }
      ],
      "stateMutability": "view",
      "type": "function"
    },
    {
      "inputs": [],
      "name": "closeSale",
      "outputs": [],
      "stateMutability": "nonpayable",
      "type": "function"
    },
    {
      "inputs": [
        {
          "internalType": "uint256",
          "name": "tokenId",
          "type": "uint256"
        }
      ],
      "name": "getApproved",
      "outputs": [
        {
          "internalType": "address",
          "name": "",
          "type": "address"
        }
      ],
      "stateMutability": "view",
      "type": "function"
    },
    {
      "inputs": [
        {
          "internalType": "address",
          "name": "owner",
          "type": "address"
        },
        {
          "internalType": "address",
          "name": "operator",
          "type": "address"
        }
      ],
      "name": "isApprovedForAll",
      "outputs": [
        {
          "internalType": "bool",
          "name": "",
          "type": "bool"
        }
      ],
      "stateMutability": "view",
      "type": "function"
    },
    {
      "inputs": [],
      "name": "name",
      "outputs": [
        {
          "internalType": "string",
          "name": "",
          "type": "string"
        }
      ],
      "stateMutability": "view",
      "type": "function"
    },
    {
      "inputs": [],
      "name": "openSale",
      "outputs": [],
      "stateMutability": "nonpayable",
      "type": "function"
    },
    {
      "inputs": [
        {
          "internalType": "uint256",
          "name": "tokenId",
          "type": "uint256"
        }
      ],
      "name": "ownerOf",
      "outputs": [
        {
          "internalType": "address",
          "name": "",
          "type": "address"
        }
      ],
      "stateMutability": "view",
      "type": "function"
    },
    {
      "inputs": [
        {
          "internalType": "address",
          "name": "from",
          "type": "address"
        },
        {
          "internalType": "address",
          "name": "to",
          "type": "address"
        },
        {
          "internalType": "uint256",
          "name": "tokenId",
          "type": "uint256"
        }
      ],
      "name": "safeTransferFrom",
      "outputs": [],
      "stateMutability": "nonpayable",
      "type": "function"
    },
    {
      "inputs": [
        {
          "internalType": "address",
          "name": "from",
          "type": "address"
        },
        {
          "internalType": "address",
          "name": "to",
          "type": "address"
        },
        {
          "internalType": "uint256",
          "name": "tokenId",
          "type": "uint256"
        },
        {
          "internalType": "bytes",
          "name": "data",
          "type": "bytes"
        }
      ],
      "name": "safeTransferFrom",
      "outputs": [],
      "stateMutability": "nonpayable",
      "type": "function"
    },
    {
      "inputs": [],
      "name": "saleIsActive",
      "outputs": [
        {
          "internalType": "bool",
          "name": "",
          "type": "bool"
        }
      ],
      "stateMutability": "view",
      "type": "function"
    },
    {
      "inputs": [
        {
          "internalType": "address",
          "name": "operator",
          "type": "address"
        },
        {
          "internalType": "bool",
          "name": "approved",
          "type": "bool"
        }
      ],
      "name": "setApprovalForAll",
      "outputs": [],
      "stateMutability": "nonpayable",
      "type": "function"
    },
    {
      "inputs": [
        {
          "internalType": "bytes4",
          "name": "interfaceId",
          "type": "bytes4"
        }
      ],
      "name": "supportsInterface",
      "outputs": [
        {
          "internalType": "bool",
          "name": "",
          "type": "bool"
        }
      ],
      "stateMutability": "view",
      "type": "function"
    },
    {
      "inputs": [],
      "name": "symbol",
      "outputs": [
        {
          "internalType": "string",
          "name": "",
          "type": "string"
        }
      ],
      "stateMutability": "view",
      "type": "function"
    },
    {
      "inputs": [
        {
          "internalType": "uint256",
          "name": "tokenId",
          "type": "uint256"
        }
      ],
      "name": "tokenURI",
      "outputs": [
        {
          "internalType": "string",
          "name": "",
          "type": "string"
        }
      ],
      "stateMutability": "view",
      "type": "function"
    },
    {
      "inputs": [
        {
          "internalType": "address",
          "name": "from",
          "type": "address"
        },
        {
          "internalType": "address",
          "name": "to",
          "type": "address"
        },
        {
          "internalType": "uint256",
          "name": "tokenId",
          "type": "uint256"
        }
      ],
      "name": "transferFrom",
      "outputs": [],
      "stateMutability": "nonpayable",
      "type": "function"
    }
  ],
  "transactionHash": "0x56843773380fde646fcdf553d421383e646afb74a628e6dc0cd76b3042b037a9",
  "args": [],
  "solcInputHash": "c5ef05d86465c2d6561a0436b47a5953",
  "bytecode": "0x60806040526007805460ff191690553480156200001b57600080fd5b50604051806040016040528060078152602001660a8f0c4d2a8d2f60cb1b815250604051806040016040528060078152602001660a8b08492a8d2f60cb1b81525081600090805190602001906200007492919062000093565b5080516200008a90600190602084019062000093565b50505062000176565b828054620000a19062000139565b90600052602060002090601f016020900481019282620000c5576000855562000110565b82601f10620000e057805160ff191683800117855562000110565b8280016001018555821562000110579182015b8281111562000110578251825591602001919060010190620000f3565b506200011e92915062000122565b5090565b5b808211156200011e576000815560010162000123565b600181811c908216806200014e57607f821691505b602082108114156200017057634e487b7160e01b600052602260045260246000fd5b50919050565b6112aa80620001866000396000f3fe608060405234801561001057600080fd5b50600436106101005760003560e01c806370a0823111610097578063c87b56dd11610066578063c87b56dd1461021c578063e985e9c51461022f578063eb8d24441461026b578063ee55efee1461027857600080fd5b806370a08231146101cd57806395d89b41146101ee578063a22cb465146101f6578063b88d4fde1461020957600080fd5b8063167ff46f116100d3578063167ff46f1461018257806323b872dd1461019457806342842e0e146101a75780636352211e146101ba57600080fd5b806301ffc9a71461010557806306fdde031461012d578063081812fc14610142578063095ea7b31461016d575b600080fd5b610118610113366004610fa8565b610287565b60405190151581526020015b60405180910390f35b6101356102d9565b6040516101249190611090565b610155610150366004610fe0565b61036b565b6040516001600160a01b039091168152602001610124565b61018061017b366004610f7f565b610392565b005b6101806007805460ff19166001179055565b6101806101a2366004610e35565b6104ad565b6101806101b5366004610e35565b6104de565b6101556101c8366004610fe0565b6104f9565b6101e06101db366004610de9565b610559565b604051908152602001610124565b6101356105df565b610180610204366004610f45565b6105ee565b610180610217366004610e70565b6105fd565b61013561022a366004610fe0565b610635565b61011861023d366004610e03565b6001600160a01b03918216600090815260056020908152604080832093909416825291909152205460ff1690565b6007546101189060ff1681565b6101806007805460ff19169055565b60006001600160e01b031982166380ac58cd60e01b14806102b857506001600160e01b03198216635b5e139f60e01b145b806102d357506301ffc9a760e01b6001600160e01b03198316145b92915050565b6060600080546102e8906111b2565b80601f0160208091040260200160405190810160405280929190818152602001828054610314906111b2565b80156103615780601f1061033657610100808354040283529160200191610361565b820191906000526020600020905b81548152906001019060200180831161034457829003601f168201915b5050505050905090565b600061037682610746565b506000908152600460205260409020546001600160a01b031690565b600061039d826104f9565b9050806001600160a01b0316836001600160a01b031614156104105760405162461bcd60e51b815260206004820152602160248201527f4552433732313a20617070726f76616c20746f2063757272656e74206f776e656044820152603960f91b60648201526084015b60405180910390fd5b336001600160a01b038216148061042c575061042c813361023d565b61049e5760405162461bcd60e51b815260206004820152603e60248201527f4552433732313a20617070726f76652063616c6c6572206973206e6f7420746f60448201527f6b656e206f776e6572206e6f7220617070726f76656420666f7220616c6c00006064820152608401610407565b6104a883836107a8565b505050565b6104b73382610816565b6104d35760405162461bcd60e51b8152600401610407906110f5565b6104a8838383610894565b6104a8838383604051806020016040528060008152506105fd565b6000818152600260205260408120546001600160a01b0316806102d35760405162461bcd60e51b8152602060048201526018602482015277115490cdcc8c4e881a5b9d985b1a59081d1bdad95b88125160421b6044820152606401610407565b60006001600160a01b0382166105c35760405162461bcd60e51b815260206004820152602960248201527f4552433732313a2061646472657373207a65726f206973206e6f7420612076616044820152683634b21037bbb732b960b91b6064820152608401610407565b506001600160a01b031660009081526003602052604090205490565b6060600180546102e8906111b2565b6105f9338383610a30565b5050565b6106073383610816565b6106235760405162461bcd60e51b8152600401610407906110f5565b61062f84848484610aff565b50505050565b606061064082610746565b60008281526006602052604081208054610659906111b2565b80601f0160208091040260200160405190810160405280929190818152602001828054610685906111b2565b80156106d25780601f106106a7576101008083540402835291602001916106d2565b820191906000526020600020905b8154815290600101906020018083116106b557829003601f168201915b5050505050905060006106f060408051602081019091526000815290565b9050805160001415610703575092915050565b81511561073557808260405160200161071d929190611024565b60405160208183030381529060405292505050919050565b61073e84610b32565b949350505050565b6000818152600260205260409020546001600160a01b03166107a55760405162461bcd60e51b8152602060048201526018602482015277115490cdcc8c4e881a5b9d985b1a59081d1bdad95b88125160421b6044820152606401610407565b50565b600081815260046020526040902080546001600160a01b0319166001600160a01b03841690811790915581906107dd826104f9565b6001600160a01b03167f8c5be1e5ebec7d5bd14f71427d1e84f3dd0314c0f7b2291e5b200ac8c7c3b92560405160405180910390a45050565b600080610822836104f9565b9050806001600160a01b0316846001600160a01b0316148061086957506001600160a01b0380821660009081526005602090815260408083209388168352929052205460ff165b8061073e5750836001600160a01b03166108828461036b565b6001600160a01b031614949350505050565b826001600160a01b03166108a7826104f9565b6001600160a01b03161461090b5760405162461bcd60e51b815260206004820152602560248201527f4552433732313a207472616e736665722066726f6d20696e636f72726563742060448201526437bbb732b960d91b6064820152608401610407565b6001600160a01b03821661096d5760405162461bcd60e51b8152602060048201526024808201527f4552433732313a207472616e7366657220746f20746865207a65726f206164646044820152637265737360e01b6064820152608401610407565b6109786000826107a8565b6001600160a01b03831660009081526003602052604081208054600192906109a190849061116f565b90915550506001600160a01b03821660009081526003602052604081208054600192906109cf908490611143565b909155505060008181526002602052604080822080546001600160a01b0319166001600160a01b0386811691821790925591518493918716917fddf252ad1be2c89b69c2b068fc378daa952ba7f163c4a11628f55a4df523b3ef91a4505050565b816001600160a01b0316836001600160a01b03161415610a925760405162461bcd60e51b815260206004820152601960248201527f4552433732313a20617070726f766520746f2063616c6c6572000000000000006044820152606401610407565b6001600160a01b03838116600081815260056020908152604080832094871680845294825291829020805460ff191686151590811790915591519182527f17307eab39ab6107e8899845ad3d59bd9653f200f220920489ca2b5937696c31910160405180910390a3505050565b610b0a848484610894565b610b1684848484610ba6565b61062f5760405162461bcd60e51b8152600401610407906110a3565b6060610b3d82610746565b6000610b5460408051602081019091526000815290565b90506000815111610b745760405180602001604052806000815250610b9f565b80610b7e84610cb3565b604051602001610b8f929190611024565b6040516020818303038152906040525b9392505050565b60006001600160a01b0384163b15610ca857604051630a85bd0160e11b81526001600160a01b0385169063150b7a0290610bea903390899088908890600401611053565b602060405180830381600087803b158015610c0457600080fd5b505af1925050508015610c34575060408051601f3d908101601f19168201909252610c3191810190610fc4565b60015b610c8e573d808015610c62576040519150601f19603f3d011682016040523d82523d6000602084013e610c67565b606091505b508051610c865760405162461bcd60e51b8152600401610407906110a3565b805181602001fd5b6001600160e01b031916630a85bd0160e11b14905061073e565b506001949350505050565b606081610cd75750506040805180820190915260018152600360fc1b602082015290565b8160005b8115610d015780610ceb816111ed565b9150610cfa9050600a8361115b565b9150610cdb565b60008167ffffffffffffffff811115610d2a57634e487b7160e01b600052604160045260246000fd5b6040519080825280601f01601f191660200182016040528015610d54576020820181803683370190505b5090505b841561073e57610d6960018361116f565b9150610d76600a86611208565b610d81906030611143565b60f81b818381518110610da457634e487b7160e01b600052603260045260246000fd5b60200101906001600160f81b031916908160001a905350610dc6600a8661115b565b9450610d58565b80356001600160a01b0381168114610de457600080fd5b919050565b600060208284031215610dfa578081fd5b610b9f82610dcd565b60008060408385031215610e15578081fd5b610e1e83610dcd565b9150610e2c60208401610dcd565b90509250929050565b600080600060608486031215610e49578081fd5b610e5284610dcd565b9250610e6060208501610dcd565b9150604084013590509250925092565b60008060008060808587031215610e85578081fd5b610e8e85610dcd565b9350610e9c60208601610dcd565b925060408501359150606085013567ffffffffffffffff80821115610ebf578283fd5b818701915087601f830112610ed2578283fd5b813581811115610ee457610ee4611248565b604051601f8201601f19908116603f01168101908382118183101715610f0c57610f0c611248565b816040528281528a6020848701011115610f24578586fd5b82602086016020830137918201602001949094529598949750929550505050565b60008060408385031215610f57578182fd5b610f6083610dcd565b915060208301358015158114610f74578182fd5b809150509250929050565b60008060408385031215610f91578182fd5b610f9a83610dcd565b946020939093013593505050565b600060208284031215610fb9578081fd5b8135610b9f8161125e565b600060208284031215610fd5578081fd5b8151610b9f8161125e565b600060208284031215610ff1578081fd5b5035919050565b60008151808452611010816020860160208601611186565b601f01601f19169290920160200192915050565b60008351611036818460208801611186565b83519083019061104a818360208801611186565b01949350505050565b6001600160a01b038581168252841660208201526040810183905260806060820181905260009061108690830184610ff8565b9695505050505050565b602081526000610b9f6020830184610ff8565b60208082526032908201527f4552433732313a207472616e7366657220746f206e6f6e20455243373231526560408201527131b2b4bb32b91034b6b83632b6b2b73a32b960711b606082015260800190565b6020808252602e908201527f4552433732313a2063616c6c6572206973206e6f7420746f6b656e206f776e6560408201526d1c881b9bdc88185c1c1c9bdd995960921b606082015260800190565b600082198211156111565761115661121c565b500190565b60008261116a5761116a611232565b500490565b6000828210156111815761118161121c565b500390565b60005b838110156111a1578181015183820152602001611189565b8381111561062f5750506000910152565b600181811c908216806111c657607f821691505b602082108114156111e757634e487b7160e01b600052602260045260246000fd5b50919050565b60006000198214156112015761120161121c565b5060010190565b60008261121757611217611232565b500690565b634e487b7160e01b600052601160045260246000fd5b634e487b7160e01b600052601260045260246000fd5b634e487b7160e01b600052604160045260246000fd5b6001600160e01b0319811681146107a557600080fdfea2646970667358221220b9c9ef6cda0696d611f2f102a0d657f7bbd2e7f8a88c474621c893b7f63e1d6f64736f6c63430008040033",
  "devdoc": {
    "kind": "dev",
    "methods": {
      "approve(address,uint256)": {
        "details": "See {IERC721-approve}."
      },
      "balanceOf(address)": {
        "details": "See {IERC721-balanceOf}."
      },
      "getApproved(uint256)": {
        "details": "See {IERC721-getApproved}."
      },
      "isApprovedForAll(address,address)": {
        "details": "See {IERC721-isApprovedForAll}."
      },
      "name()": {
        "details": "See {IERC721Metadata-name}."
      },
      "ownerOf(uint256)": {
        "details": "See {IERC721-ownerOf}."
      },
      "safeTransferFrom(address,address,uint256)": {
        "details": "See {IERC721-safeTransferFrom}."
      },
      "safeTransferFrom(address,address,uint256,bytes)": {
        "details": "See {IERC721-safeTransferFrom}."
      },
      "setApprovalForAll(address,bool)": {
        "details": "See {IERC721-setApprovalForAll}."
      },
      "supportsInterface(bytes4)": {
        "details": "See {IERC165-supportsInterface}."
      },
      "symbol()": {
        "details": "See {IERC721Metadata-symbol}."
      },
      "tokenURI(uint256)": {
        "details": "See {IERC721Metadata-tokenURI}."
      },
      "transferFrom(address,address,uint256)": {
        "details": "See {IERC721-transferFrom}."
      }
    },
    "version": 1
  },
  "userdoc": {
    "kind": "user",
    "methods": {},
    "version": 1
  },
  "storageLayout": {
    "storage": [
      {
        "astId": 25,
        "contract": "contracts/TxbiTix.sol:TxbiTix",
        "label": "_name",
        "offset": 0,
        "slot": "0",
        "type": "t_string_storage"
      },
      {
        "astId": 27,
        "contract": "contracts/TxbiTix.sol:TxbiTix",
        "label": "_symbol",
        "offset": 0,
        "slot": "1",
        "type": "t_string_storage"
      },
      {
        "astId": 31,
        "contract": "contracts/TxbiTix.sol:TxbiTix",
        "label": "_owners",
        "offset": 0,
        "slot": "2",
        "type": "t_mapping(t_uint256,t_address)"
      },
      {
        "astId": 35,
        "contract": "contracts/TxbiTix.sol:TxbiTix",
        "label": "_balances",
        "offset": 0,
        "slot": "3",
        "type": "t_mapping(t_address,t_uint256)"
      },
      {
        "astId": 39,
        "contract": "contracts/TxbiTix.sol:TxbiTix",
        "label": "_tokenApprovals",
        "offset": 0,
        "slot": "4",
        "type": "t_mapping(t_uint256,t_address)"
      },
      {
        "astId": 45,
        "contract": "contracts/TxbiTix.sol:TxbiTix",
        "label": "_operatorApprovals",
        "offset": 0,
        "slot": "5",
        "type": "t_mapping(t_address,t_mapping(t_address,t_bool))"
      },
      {
        "astId": 1013,
        "contract": "contracts/TxbiTix.sol:TxbiTix",
        "label": "_tokenURIs",
        "offset": 0,
        "slot": "6",
        "type": "t_mapping(t_uint256,t_string_storage)"
      },
      {
        "astId": 1739,
        "contract": "contracts/TxbiTix.sol:TxbiTix",
        "label": "saleIsActive",
        "offset": 0,
        "slot": "7",
        "type": "t_bool"
      }
    ],
    "types": {
      "t_address": {
        "encoding": "inplace",
        "label": "address",
        "numberOfBytes": "20"
      },
      "t_bool": {
        "encoding": "inplace",
        "label": "bool",
        "numberOfBytes": "1"
      },
      "t_mapping(t_address,t_bool)": {
        "encoding": "mapping",
        "key": "t_address",
        "label": "mapping(address => bool)",
        "numberOfBytes": "32",
        "value": "t_bool"
      },
      "t_mapping(t_address,t_mapping(t_address,t_bool))": {
        "encoding": "mapping",
        "key": "t_address",
        "label": "mapping(address => mapping(address => bool))",
        "numberOfBytes": "32",
        "value": "t_mapping(t_address,t_bool)"
      },
      "t_mapping(t_address,t_uint256)": {
        "encoding": "mapping",
        "key": "t_address",
        "label": "mapping(address => uint256)",
        "numberOfBytes": "32",
        "value": "t_uint256"
      },
      "t_mapping(t_uint256,t_address)": {
        "encoding": "mapping",
        "key": "t_uint256",
        "label": "mapping(uint256 => address)",
        "numberOfBytes": "32",
        "value": "t_address"
      },
      "t_mapping(t_uint256,t_string_storage)": {
        "encoding": "mapping",
        "key": "t_uint256",
        "label": "mapping(uint256 => string)",
        "numberOfBytes": "32",
        "value": "t_string_storage"
      },
      "t_string_storage": {
        "encoding": "bytes",
        "label": "string",
        "numberOfBytes": "32"
      },
      "t_uint256": {
        "encoding": "inplace",
        "label": "uint256",
        "numberOfBytes": "32"
      }
    }
  }
}