{
  "address": "0x8A791620dd6260079BF849Dc5567aDC3F2FdC318",
  "abi": [
    {
      "inputs": [],
      "stateMutability": "nonpayable",
      "type": "constructor"
    },
    {
      "anonymous": false,
      "inputs": [
        {
          "indexed": true,
          "internalType": "address",
          "name": "owner",
          "type": "address"
        },
        {
          "indexed": true,
          "internalType": "address",
          "name": "approved",
          "type": "address"
        },
        {
          "indexed": true,
          "internalType": "uint256",
          "name": "tokenId",
          "type": "uint256"
        }
      ],
      "name": "Approval",
      "type": "event"
    },
    {
      "anonymous": false,
      "inputs": [
        {
          "indexed": true,
          "internalType": "address",
          "name": "owner",
          "type": "address"
        },
        {
          "indexed": true,
          "internalType": "address",
          "name": "operator",
          "type": "address"
        },
        {
          "indexed": false,
          "internalType": "bool",
          "name": "approved",
          "type": "bool"
        }
      ],
      "name": "ApprovalForAll",
      "type": "event"
    },
    {
      "anonymous": false,
      "inputs": [
        {
          "indexed": true,
          "internalType": "address",
          "name": "from",
          "type": "address"
        },
        {
          "indexed": true,
          "internalType": "address",
          "name": "to",
          "type": "address"
        },
        {
          "indexed": true,
          "internalType": "uint256",
          "name": "tokenId",
          "type": "uint256"
        }
      ],
      "name": "Transfer",
      "type": "event"
    },
    {
      "inputs": [
        {
          "internalType": "address",
          "name": "to",
          "type": "address"
        },
        {
          "internalType": "uint256",
          "name": "tokenId",
          "type": "uint256"
        }
      ],
      "name": "approve",
      "outputs": [],
      "stateMutability": "nonpayable",
      "type": "function"
    },
    {
      "inputs": [],
      "name": "availableTicketCount",
      "outputs": [
        {
          "internalType": "uint256",
          "name": "",
          "type": "uint256"
        }
      ],
      "stateMutability": "view",
      "type": "function"
    },
    {
      "inputs": [],
      "name": "availableTickets",
      "outputs": [
        {
          "internalType": "uint256",
          "name": "",
          "type": "uint256"
        }
      ],
      "stateMutability": "view",
      "type": "function"
    },
    {
      "inputs": [
        {
          "internalType": "address",
          "name": "owner",
          "type": "address"
        }
      ],
      "name": "balanceOf",
      "outputs": [
        {
          "internalType": "uint256",
          "name": "",
          "type": "uint256"
        }
      ],
      "stateMutability": "view",
      "type": "function"
    },
    {
      "inputs": [],
      "name": "closeSale",
      "outputs": [],
      "stateMutability": "nonpayable",
      "type": "function"
    },
    {
      "inputs": [
        {
          "internalType": "uint256",
          "name": "tokenId",
          "type": "uint256"
        }
      ],
      "name": "getApproved",
      "outputs": [
        {
          "internalType": "address",
          "name": "",
          "type": "address"
        }
      ],
      "stateMutability": "view",
      "type": "function"
    },
    {
      "inputs": [
        {
          "internalType": "address",
          "name": "",
          "type": "address"
        },
        {
          "internalType": "uint256",
          "name": "",
          "type": "uint256"
        }
      ],
      "name": "holderTokenIDs",
      "outputs": [
        {
          "internalType": "uint256",
          "name": "",
          "type": "uint256"
        }
      ],
      "stateMutability": "view",
      "type": "function"
    },
    {
      "inputs": [
        {
          "internalType": "address",
          "name": "owner",
          "type": "address"
        },
        {
          "internalType": "address",
          "name": "operator",
          "type": "address"
        }
      ],
      "name": "isApprovedForAll",
      "outputs": [
        {
          "internalType": "bool",
          "name": "",
          "type": "bool"
        }
      ],
      "stateMutability": "view",
      "type": "function"
    },
    {
      "inputs": [],
      "name": "mint",
      "outputs": [],
      "stateMutability": "nonpayable",
      "type": "function"
    },
    {
      "inputs": [],
      "name": "name",
      "outputs": [
        {
          "internalType": "string",
          "name": "",
          "type": "string"
        }
      ],
      "stateMutability": "view",
      "type": "function"
    },
    {
      "inputs": [],
      "name": "openSale",
      "outputs": [],
      "stateMutability": "nonpayable",
      "type": "function"
    },
    {
      "inputs": [
        {
          "internalType": "uint256",
          "name": "tokenId",
          "type": "uint256"
        }
      ],
      "name": "ownerOf",
      "outputs": [
        {
          "internalType": "address",
          "name": "",
          "type": "address"
        }
      ],
      "stateMutability": "view",
      "type": "function"
    },
    {
      "inputs": [
        {
          "internalType": "address",
          "name": "from",
          "type": "address"
        },
        {
          "internalType": "address",
          "name": "to",
          "type": "address"
        },
        {
          "internalType": "uint256",
          "name": "tokenId",
          "type": "uint256"
        }
      ],
      "name": "safeTransferFrom",
      "outputs": [],
      "stateMutability": "nonpayable",
      "type": "function"
    },
    {
      "inputs": [
        {
          "internalType": "address",
          "name": "from",
          "type": "address"
        },
        {
          "internalType": "address",
          "name": "to",
          "type": "address"
        },
        {
          "internalType": "uint256",
          "name": "tokenId",
          "type": "uint256"
        },
        {
          "internalType": "bytes",
          "name": "data",
          "type": "bytes"
        }
      ],
      "name": "safeTransferFrom",
      "outputs": [],
      "stateMutability": "nonpayable",
      "type": "function"
    },
    {
      "inputs": [],
      "name": "saleIsActive",
      "outputs": [
        {
          "internalType": "bool",
          "name": "",
          "type": "bool"
        }
      ],
      "stateMutability": "view",
      "type": "function"
    },
    {
      "inputs": [
        {
          "internalType": "address",
          "name": "operator",
          "type": "address"
        },
        {
          "internalType": "bool",
          "name": "approved",
          "type": "bool"
        }
      ],
      "name": "setApprovalForAll",
      "outputs": [],
      "stateMutability": "nonpayable",
      "type": "function"
    },
    {
      "inputs": [
        {
          "internalType": "bytes4",
          "name": "interfaceId",
          "type": "bytes4"
        }
      ],
      "name": "supportsInterface",
      "outputs": [
        {
          "internalType": "bool",
          "name": "",
          "type": "bool"
        }
      ],
      "stateMutability": "view",
      "type": "function"
    },
    {
      "inputs": [],
      "name": "symbol",
      "outputs": [
        {
          "internalType": "string",
          "name": "",
          "type": "string"
        }
      ],
      "stateMutability": "view",
      "type": "function"
    },
    {
      "inputs": [
        {
          "internalType": "uint256",
          "name": "tokenId",
          "type": "uint256"
        }
      ],
      "name": "tokenURI",
      "outputs": [
        {
          "internalType": "string",
          "name": "",
          "type": "string"
        }
      ],
      "stateMutability": "view",
      "type": "function"
    },
    {
      "inputs": [],
      "name": "totalTicketCount",
      "outputs": [
        {
          "internalType": "uint256",
          "name": "",
          "type": "uint256"
        }
      ],
      "stateMutability": "view",
      "type": "function"
    },
    {
      "inputs": [],
      "name": "totalTickets",
      "outputs": [
        {
          "internalType": "uint256",
          "name": "",
          "type": "uint256"
        }
      ],
      "stateMutability": "view",
      "type": "function"
    },
    {
      "inputs": [
        {
          "internalType": "address",
          "name": "from",
          "type": "address"
        },
        {
          "internalType": "address",
          "name": "to",
          "type": "address"
        },
        {
          "internalType": "uint256",
          "name": "tokenId",
          "type": "uint256"
        }
      ],
      "name": "transferFrom",
      "outputs": [],
      "stateMutability": "nonpayable",
      "type": "function"
    }
  ],
  "transactionHash": "0x0d78939a7dd11e58ad9a3ad2400b2c0ecc2b9ee5263fbf9e89bb84a2a13f08aa",
  "args": [],
  "solcInputHash": "371c8d18aefc0e9b43e3b1e8b69c509b",
  "bytecode": "0x60806040526008805460ff19169055600a600981905580553480156200002457600080fd5b50604051806040016040528060078152602001660a8f0c4d2a8d2f60cb1b815250604051806040016040528060078152602001660a8b08492a8d2f60cb1b81525081600090805190602001906200007d9291906200015c565b508051620000939060019060208401906200015c565b505050620000ad6007620000df60201b620009921760201c565b620000d9620000c86007620000e860201b6200099b1760201c565b620000ec60201b6200099f1760201c565b6200023f565b80546001019055565b5490565b62000138816040516024016200010491815260200190565b60408051601f198184030181529190526020810180516001600160e01b0390811663f5b1bba960e01b179091526200013b16565b50565b80516a636f6e736f6c652e6c6f67602083016000808483855afa5050505050565b8280546200016a9062000202565b90600052602060002090601f0160209004810192826200018e5760008555620001d9565b82601f10620001a957805160ff1916838001178555620001d9565b82800160010185558215620001d9579182015b82811115620001d9578251825591602001919060010190620001bc565b50620001e7929150620001eb565b5090565b5b80821115620001e75760008155600101620001ec565b600181811c908216806200021757607f821691505b602082108114156200023957634e487b7160e01b600052602260045260246000fd5b50919050565b611c86806200024f6000396000f3fe608060405234801561001057600080fd5b50600436106101425760003560e01c80636352211e116100b8578063b88d4fde1161007c578063b88d4fde1461027b578063c87b56dd1461028e578063dd11247e146102a1578063e985e9c5146102aa578063eb8d2444146102e6578063ee55efee146102f357600080fd5b80636352211e1461022757806370a082311461023a57806382ac0bb81461024d57806395d89b4114610260578063a22cb4651461026857600080fd5b806314558fab1161010a57806314558fab146101cc578063167ff46f146101de57806323b872dd146101f05780633cfa7e01146102035780633d721ecd1461020c57806342842e0e1461021457600080fd5b806301ffc9a71461014757806306fdde031461016f578063081812fc14610184578063095ea7b3146101af5780631249c58b146101c4575b600080fd5b61015a6101553660046116f5565b610302565b60405190151581526020015b60405180910390f35b610177610354565b60405161016691906119c2565b61019761019236600461172d565b6103e6565b6040516001600160a01b039091168152602001610166565b6101c26101bd3660046116cc565b61040d565b005b6101c2610528565b6009545b604051908152602001610166565b6101c26008805460ff19166001179055565b6101c26101fe366004611582565b6106c8565b6101d0600a5481565b600a546101d0565b6101c2610222366004611582565b6106f9565b61019761023536600461172d565b610714565b6101d0610248366004611536565b610774565b6101d061025b3660046116cc565b6107fa565b61017761082b565b6101c2610276366004611692565b61083a565b6101c26102893660046115bd565b610849565b61017761029c36600461172d565b610881565b6101d060095481565b61015a6102b8366004611550565b6001600160a01b03918216600090815260056020908152604080832093909416825291909152205460ff1690565b60085461015a9060ff1681565b6101c26008805460ff19169055565b60006001600160e01b031982166380ac58cd60e01b148061033357506001600160e01b03198216635b5e139f60e01b145b8061034e57506301ffc9a760e01b6001600160e01b03198316145b92915050565b60606000805461036390611b03565b80601f016020809104026020016040519081016040528092919081815260200182805461038f90611b03565b80156103dc5780601f106103b1576101008083540402835291602001916103dc565b820191906000526020600020905b8154815290600101906020018083116103bf57829003601f168201915b5050505050905090565b60006103f1826109e7565b506000908152600460205260409020546001600160a01b031690565b600061041882610714565b9050806001600160a01b0316836001600160a01b0316141561048b5760405162461bcd60e51b815260206004820152602160248201527f4552433732313a20617070726f76616c20746f2063757272656e74206f776e656044820152603960f91b60648201526084015b60405180910390fd5b336001600160a01b03821614806104a757506104a781336102b8565b6105195760405162461bcd60e51b815260206004820152603e60248201527f4552433732313a20617070726f76652063616c6c6572206973206e6f7420746f60448201527f6b656e206f776e6572206e6f7220617070726f76656420666f7220616c6c00006064820152608401610482565b6105238383610a46565b505050565b6000600a541161056c5760405162461bcd60e51b815260206004820152600f60248201526e1d1a58dad95d1cc81bdd5d1cdbdb19608a1b6044820152606401610482565b61057461145a565b6040518060800160405280604b8152602001611bc6604b913981526007546105a090610ab4565b610ab4565b6020828101918252604080518082018252600d81526c1e17ba32bc3a1f1e17b9bb339f60991b818401528185018190528451935191516000946105e79490939291016117a0565b6040516020818303038152906040529050600061060382610bce565b905061060e81610d30565b600061064561061f61059b60075490565b836040516020016106319291906117e3565b604051602081830303815290604052610bce565b905060008160405160200161065a919061194a565b604051602081830303815290604052905061067481610d30565b61067d81610d30565b61068f3361068a60075490565b610d73565b6106a161069b60075490565b82610d8d565b6106af600780546001019055565b6001600a546106be9190611ac0565b600a555050505050565b6106d23382610e27565b6106ee5760405162461bcd60e51b815260040161048290611a27565b610523838383610ea5565b61052383838360405180602001604052806000815250610849565b6000818152600260205260408120546001600160a01b03168061034e5760405162461bcd60e51b8152602060048201526018602482015277115490cdcc8c4e881a5b9d985b1a59081d1bdad95b88125160421b6044820152606401610482565b60006001600160a01b0382166107de5760405162461bcd60e51b815260206004820152602960248201527f4552433732313a2061646472657373207a65726f206973206e6f7420612076616044820152683634b21037bbb732b960b91b6064820152608401610482565b506001600160a01b031660009081526003602052604090205490565b600b602052816000526040600020818154811061081657600080fd5b90600052602060002001600091509150505481565b60606001805461036390611b03565b610845338383611041565b5050565b6108533383610e27565b61086f5760405162461bcd60e51b815260040161048290611a27565b61087b84848484611110565b50505050565b606061088c826109e7565b600082815260066020526040812080546108a590611b03565b80601f01602080910402602001604051908101604052809291908181526020018280546108d190611b03565b801561091e5780601f106108f35761010080835404028352916020019161091e565b820191906000526020600020905b81548152906001019060200180831161090157829003601f168201915b50505050509050600061093c60408051602081019091526000815290565b905080516000141561094f575092915050565b815115610981578082604051602001610969929190611771565b60405160208183030381529060405292505050919050565b61098a84611143565b949350505050565b80546001019055565b5490565b6109e4816040516024016109b591815260200190565b60408051601f198184030181529190526020810180516001600160e01b031663f5b1bba960e01b1790526111b7565b50565b6000818152600260205260409020546001600160a01b03166109e45760405162461bcd60e51b8152602060048201526018602482015277115490cdcc8c4e881a5b9d985b1a59081d1bdad95b88125160421b6044820152606401610482565b600081815260046020526040902080546001600160a01b0319166001600160a01b0384169081179091558190610a7b82610714565b6001600160a01b03167f8c5be1e5ebec7d5bd14f71427d1e84f3dd0314c0f7b2291e5b200ac8c7c3b92560405160405180910390a45050565b606081610ad85750506040805180820190915260018152600360fc1b602082015290565b8160005b8115610b025780610aec81611b3e565b9150610afb9050600a83611a8d565b9150610adc565b60008167ffffffffffffffff811115610b2b57634e487b7160e01b600052604160045260246000fd5b6040519080825280601f01601f191660200182016040528015610b55576020820181803683370190505b5090505b841561098a57610b6a600183611ac0565b9150610b77600a86611b59565b610b82906030611a75565b60f81b818381518110610ba557634e487b7160e01b600052603260045260246000fd5b60200101906001600160f81b031916908160001a905350610bc7600a86611a8d565b9450610b59565b6060815160001415610bee57505060408051602081019091526000815290565b6000604051806060016040528060408152602001611c116040913990506000600384516002610c1d9190611a75565b610c279190611a8d565b610c32906004611aa1565b67ffffffffffffffff811115610c5857634e487b7160e01b600052604160045260246000fd5b6040519080825280601f01601f191660200182016040528015610c82576020820181803683370190505b509050600182016020820185865187015b80821015610cee576003820191508151603f8160121c168501518453600184019350603f81600c1c168501518453600184019350603f8160061c168501518453600184019350603f8116850151845350600183019250610c93565b5050600386510660018114610d0a5760028114610d1d57610d25565b603d6001830353603d6002830353610d25565b603d60018303535b509195945050505050565b6109e481604051602401610d4491906119c2565b60408051601f198184030181529190526020810180516001600160e01b031663104c13eb60e21b1790526111b7565b6108458282604051806020016040528060008152506111d8565b6000828152600260205260409020546001600160a01b0316610e085760405162461bcd60e51b815260206004820152602e60248201527f45524337323155524953746f726167653a2055524920736574206f66206e6f6e60448201526d32bc34b9ba32b73a103a37b5b2b760911b6064820152608401610482565b6000828152600660209081526040909120825161052392840190611481565b600080610e3383610714565b9050806001600160a01b0316846001600160a01b03161480610e7a57506001600160a01b0380821660009081526005602090815260408083209388168352929052205460ff165b8061098a5750836001600160a01b0316610e93846103e6565b6001600160a01b031614949350505050565b826001600160a01b0316610eb882610714565b6001600160a01b031614610f1c5760405162461bcd60e51b815260206004820152602560248201527f4552433732313a207472616e736665722066726f6d20696e636f72726563742060448201526437bbb732b960d91b6064820152608401610482565b6001600160a01b038216610f7e5760405162461bcd60e51b8152602060048201526024808201527f4552433732313a207472616e7366657220746f20746865207a65726f206164646044820152637265737360e01b6064820152608401610482565b610f89600082610a46565b6001600160a01b0383166000908152600360205260408120805460019290610fb2908490611ac0565b90915550506001600160a01b0382166000908152600360205260408120805460019290610fe0908490611a75565b909155505060008181526002602052604080822080546001600160a01b0319166001600160a01b0386811691821790925591518493918716917fddf252ad1be2c89b69c2b068fc378daa952ba7f163c4a11628f55a4df523b3ef91a4505050565b816001600160a01b0316836001600160a01b031614156110a35760405162461bcd60e51b815260206004820152601960248201527f4552433732313a20617070726f766520746f2063616c6c6572000000000000006044820152606401610482565b6001600160a01b03838116600081815260056020908152604080832094871680845294825291829020805460ff191686151590811790915591519182527f17307eab39ab6107e8899845ad3d59bd9653f200f220920489ca2b5937696c31910160405180910390a3505050565b61111b848484610ea5565b6111278484848461120b565b61087b5760405162461bcd60e51b8152600401610482906119d5565b606061114e826109e7565b600061116560408051602081019091526000815290565b9050600081511161118557604051806020016040528060008152506111b0565b8061118f84610ab4565b6040516020016111a0929190611771565b6040516020818303038152906040525b9392505050565b80516a636f6e736f6c652e6c6f67602083016000808483855afa5050505050565b6111e28383611318565b6111ef600084848461120b565b6105235760405162461bcd60e51b8152600401610482906119d5565b60006001600160a01b0384163b1561130d57604051630a85bd0160e11b81526001600160a01b0385169063150b7a029061124f90339089908890889060040161198f565b602060405180830381600087803b15801561126957600080fd5b505af1925050508015611299575060408051601f3d908101601f1916820190925261129691810190611711565b60015b6112f3573d8080156112c7576040519150601f19603f3d011682016040523d82523d6000602084013e6112cc565b606091505b5080516112eb5760405162461bcd60e51b8152600401610482906119d5565b805181602001fd5b6001600160e01b031916630a85bd0160e11b14905061098a565b506001949350505050565b6001600160a01b03821661136e5760405162461bcd60e51b815260206004820181905260248201527f4552433732313a206d696e7420746f20746865207a65726f20616464726573736044820152606401610482565b6000818152600260205260409020546001600160a01b0316156113d35760405162461bcd60e51b815260206004820152601c60248201527f4552433732313a20746f6b656e20616c7265616479206d696e746564000000006044820152606401610482565b6001600160a01b03821660009081526003602052604081208054600192906113fc908490611a75565b909155505060008181526002602052604080822080546001600160a01b0319166001600160a01b03861690811790915590518392907fddf252ad1be2c89b69c2b068fc378daa952ba7f163c4a11628f55a4df523b3ef908290a45050565b60405180606001604052806003905b60608152602001906001900390816114695790505090565b82805461148d90611b03565b90600052602060002090601f0160209004810192826114af57600085556114f5565b82601f106114c857805160ff19168380011785556114f5565b828001600101855582156114f5579182015b828111156114f55782518255916020019190600101906114da565b50611501929150611505565b5090565b5b808211156115015760008155600101611506565b80356001600160a01b038116811461153157600080fd5b919050565b600060208284031215611547578081fd5b6111b08261151a565b60008060408385031215611562578081fd5b61156b8361151a565b91506115796020840161151a565b90509250929050565b600080600060608486031215611596578081fd5b61159f8461151a565b92506115ad6020850161151a565b9150604084013590509250925092565b600080600080608085870312156115d2578081fd5b6115db8561151a565b93506115e96020860161151a565b925060408501359150606085013567ffffffffffffffff8082111561160c578283fd5b818701915087601f83011261161f578283fd5b81358181111561163157611631611b99565b604051601f8201601f19908116603f0116810190838211818310171561165957611659611b99565b816040528281528a6020848701011115611671578586fd5b82602086016020830137918201602001949094529598949750929550505050565b600080604083850312156116a4578182fd5b6116ad8361151a565b9150602083013580151581146116c1578182fd5b809150509250929050565b600080604083850312156116de578182fd5b6116e78361151a565b946020939093013593505050565b600060208284031215611706578081fd5b81356111b081611baf565b600060208284031215611722578081fd5b81516111b081611baf565b60006020828403121561173e578081fd5b5035919050565b6000815180845261175d816020860160208601611ad7565b601f01601f19169290920160200192915050565b60008351611783818460208801611ad7565b835190830190611797818360208801611ad7565b01949350505050565b600084516117b2818460208901611ad7565b8451908301906117c6818360208901611ad7565b84519101906117d9818360208801611ad7565b0195945050505050565b737b20226e616d65223a202254786269546978202360601b81528251600090611813816014850160208801611ad7565b7f222c20226465736372697074696f6e223a202241204e46542d706f7765726564601491840191820152730103a34b1b5b2ba34b7339039bcb9ba32b69116160651b60348201527f22747261697473223a205b7b202274726169745f74797065223a20224368656360488201527f6b656420496e222c202276616c7565223a20227472756522207d2c207b20227460688201527f726169745f74797065223a2022507572636861736564222c202276616c75652260888201526c01d10113a393ab291103eae961609d1b60a88201527f22696d616765223a2022646174613a696d6167652f7376672b786d6c3b62617360b582015263194d8d0b60e21b60d582015283516119288160d9840160208801611ad7565b61194060d9828401016222207d60e81b815260030190565b9695505050505050565b7f646174613a6170706c69636174696f6e2f6a736f6e3b6261736536342c00000081526000825161198281601d850160208701611ad7565b91909101601d0192915050565b6001600160a01b038581168252841660208201526040810183905260806060820181905260009061194090830184611745565b6020815260006111b06020830184611745565b60208082526032908201527f4552433732313a207472616e7366657220746f206e6f6e20455243373231526560408201527131b2b4bb32b91034b6b83632b6b2b73a32b960711b606082015260800190565b6020808252602e908201527f4552433732313a2063616c6c6572206973206e6f7420746f6b656e206f776e6560408201526d1c881b9bdc88185c1c1c9bdd995960921b606082015260800190565b60008219821115611a8857611a88611b6d565b500190565b600082611a9c57611a9c611b83565b500490565b6000816000190483118215151615611abb57611abb611b6d565b500290565b600082821015611ad257611ad2611b6d565b500390565b60005b83811015611af2578181015183820152602001611ada565b8381111561087b5750506000910152565b600181811c90821680611b1757607f821691505b60208210811415611b3857634e487b7160e01b600052602260045260246000fd5b50919050565b6000600019821415611b5257611b52611b6d565b5060010190565b600082611b6857611b68611b83565b500690565b634e487b7160e01b600052601160045260246000fd5b634e487b7160e01b600052601260045260246000fd5b634e487b7160e01b600052604160045260246000fd5b6001600160e01b0319811681146109e457600080fdfe3c7376672076696577426f783d2230203020313030203130302220786d6c6e733d22687474703a2f2f7777772e77332e6f72672f323030302f737667223e3c7465787420793d223530223e4142434445464748494a4b4c4d4e4f505152535455565758595a6162636465666768696a6b6c6d6e6f707172737475767778797a303132333435363738392b2fa2646970667358221220863447c364e6925ec32e49762844eb30ff7b5012384db171ae72e7e24a3b891f64736f6c63430008040033",
  "devdoc": {
    "kind": "dev",
    "methods": {
      "approve(address,uint256)": {
        "details": "See {IERC721-approve}."
      },
      "balanceOf(address)": {
        "details": "See {IERC721-balanceOf}."
      },
      "getApproved(uint256)": {
        "details": "See {IERC721-getApproved}."
      },
      "isApprovedForAll(address,address)": {
        "details": "See {IERC721-isApprovedForAll}."
      },
      "name()": {
        "details": "See {IERC721Metadata-name}."
      },
      "ownerOf(uint256)": {
        "details": "See {IERC721-ownerOf}."
      },
      "safeTransferFrom(address,address,uint256)": {
        "details": "See {IERC721-safeTransferFrom}."
      },
      "safeTransferFrom(address,address,uint256,bytes)": {
        "details": "See {IERC721-safeTransferFrom}."
      },
      "setApprovalForAll(address,bool)": {
        "details": "See {IERC721-setApprovalForAll}."
      },
      "supportsInterface(bytes4)": {
        "details": "See {IERC165-supportsInterface}."
      },
      "symbol()": {
        "details": "See {IERC721Metadata-symbol}."
      },
      "tokenURI(uint256)": {
        "details": "See {IERC721Metadata-tokenURI}."
      },
      "transferFrom(address,address,uint256)": {
        "details": "See {IERC721-transferFrom}."
      }
    },
    "version": 1
  },
  "userdoc": {
    "kind": "user",
    "methods": {},
    "version": 1
  },
  "storageLayout": {
    "storage": [
      {
        "astId": 25,
        "contract": "contracts/TxbiTix.sol:TxbiTix",
        "label": "_name",
        "offset": 0,
        "slot": "0",
        "type": "t_string_storage"
      },
      {
        "astId": 27,
        "contract": "contracts/TxbiTix.sol:TxbiTix",
        "label": "_symbol",
        "offset": 0,
        "slot": "1",
        "type": "t_string_storage"
      },
      {
        "astId": 31,
        "contract": "contracts/TxbiTix.sol:TxbiTix",
        "label": "_owners",
        "offset": 0,
        "slot": "2",
        "type": "t_mapping(t_uint256,t_address)"
      },
      {
        "astId": 35,
        "contract": "contracts/TxbiTix.sol:TxbiTix",
        "label": "_balances",
        "offset": 0,
        "slot": "3",
        "type": "t_mapping(t_address,t_uint256)"
      },
      {
        "astId": 39,
        "contract": "contracts/TxbiTix.sol:TxbiTix",
        "label": "_tokenApprovals",
        "offset": 0,
        "slot": "4",
        "type": "t_mapping(t_uint256,t_address)"
      },
      {
        "astId": 45,
        "contract": "contracts/TxbiTix.sol:TxbiTix",
        "label": "_operatorApprovals",
        "offset": 0,
        "slot": "5",
        "type": "t_mapping(t_address,t_mapping(t_address,t_bool))"
      },
      {
        "astId": 1013,
        "contract": "contracts/TxbiTix.sol:TxbiTix",
        "label": "_tokenURIs",
        "offset": 0,
        "slot": "6",
        "type": "t_mapping(t_uint256,t_string_storage)"
      },
      {
        "astId": 1868,
        "contract": "contracts/TxbiTix.sol:TxbiTix",
        "label": "currentId",
        "offset": 0,
        "slot": "7",
        "type": "t_struct(Counter)1522_storage"
      },
      {
        "astId": 1871,
        "contract": "contracts/TxbiTix.sol:TxbiTix",
        "label": "saleIsActive",
        "offset": 0,
        "slot": "8",
        "type": "t_bool"
      },
      {
        "astId": 1874,
        "contract": "contracts/TxbiTix.sol:TxbiTix",
        "label": "totalTickets",
        "offset": 0,
        "slot": "9",
        "type": "t_uint256"
      },
      {
        "astId": 1877,
        "contract": "contracts/TxbiTix.sol:TxbiTix",
        "label": "availableTickets",
        "offset": 0,
        "slot": "10",
        "type": "t_uint256"
      },
      {
        "astId": 1882,
        "contract": "contracts/TxbiTix.sol:TxbiTix",
        "label": "holderTokenIDs",
        "offset": 0,
        "slot": "11",
        "type": "t_mapping(t_address,t_array(t_uint256)dyn_storage)"
      }
    ],
    "types": {
      "t_address": {
        "encoding": "inplace",
        "label": "address",
        "numberOfBytes": "20"
      },
      "t_array(t_uint256)dyn_storage": {
        "base": "t_uint256",
        "encoding": "dynamic_array",
        "label": "uint256[]",
        "numberOfBytes": "32"
      },
      "t_bool": {
        "encoding": "inplace",
        "label": "bool",
        "numberOfBytes": "1"
      },
      "t_mapping(t_address,t_array(t_uint256)dyn_storage)": {
        "encoding": "mapping",
        "key": "t_address",
        "label": "mapping(address => uint256[])",
        "numberOfBytes": "32",
        "value": "t_array(t_uint256)dyn_storage"
      },
      "t_mapping(t_address,t_bool)": {
        "encoding": "mapping",
        "key": "t_address",
        "label": "mapping(address => bool)",
        "numberOfBytes": "32",
        "value": "t_bool"
      },
      "t_mapping(t_address,t_mapping(t_address,t_bool))": {
        "encoding": "mapping",
        "key": "t_address",
        "label": "mapping(address => mapping(address => bool))",
        "numberOfBytes": "32",
        "value": "t_mapping(t_address,t_bool)"
      },
      "t_mapping(t_address,t_uint256)": {
        "encoding": "mapping",
        "key": "t_address",
        "label": "mapping(address => uint256)",
        "numberOfBytes": "32",
        "value": "t_uint256"
      },
      "t_mapping(t_uint256,t_address)": {
        "encoding": "mapping",
        "key": "t_uint256",
        "label": "mapping(uint256 => address)",
        "numberOfBytes": "32",
        "value": "t_address"
      },
      "t_mapping(t_uint256,t_string_storage)": {
        "encoding": "mapping",
        "key": "t_uint256",
        "label": "mapping(uint256 => string)",
        "numberOfBytes": "32",
        "value": "t_string_storage"
      },
      "t_string_storage": {
        "encoding": "bytes",
        "label": "string",
        "numberOfBytes": "32"
      },
      "t_struct(Counter)1522_storage": {
        "encoding": "inplace",
        "label": "struct Counters.Counter",
        "members": [
          {
            "astId": 1521,
            "contract": "contracts/TxbiTix.sol:TxbiTix",
            "label": "_value",
            "offset": 0,
            "slot": "0",
            "type": "t_uint256"
          }
        ],
        "numberOfBytes": "32"
      },
      "t_uint256": {
        "encoding": "inplace",
        "label": "uint256",
        "numberOfBytes": "32"
      }
    }
  }
}