{
  "address": "0x21aEECDED74e4765931cCa08a5F464C45CC608BC",
  "abi": [
    {
      "inputs": [],
      "stateMutability": "nonpayable",
      "type": "constructor"
    },
    {
      "anonymous": false,
      "inputs": [
        {
          "indexed": true,
          "internalType": "address",
          "name": "owner",
          "type": "address"
        },
        {
          "indexed": true,
          "internalType": "address",
          "name": "approved",
          "type": "address"
        },
        {
          "indexed": true,
          "internalType": "uint256",
          "name": "tokenId",
          "type": "uint256"
        }
      ],
      "name": "Approval",
      "type": "event"
    },
    {
      "anonymous": false,
      "inputs": [
        {
          "indexed": true,
          "internalType": "address",
          "name": "owner",
          "type": "address"
        },
        {
          "indexed": true,
          "internalType": "address",
          "name": "operator",
          "type": "address"
        },
        {
          "indexed": false,
          "internalType": "bool",
          "name": "approved",
          "type": "bool"
        }
      ],
      "name": "ApprovalForAll",
      "type": "event"
    },
    {
      "anonymous": false,
      "inputs": [
        {
          "indexed": true,
          "internalType": "address",
          "name": "previousOwner",
          "type": "address"
        },
        {
          "indexed": true,
          "internalType": "address",
          "name": "newOwner",
          "type": "address"
        }
      ],
      "name": "OwnershipTransferred",
      "type": "event"
    },
    {
      "anonymous": false,
      "inputs": [
        {
          "indexed": true,
          "internalType": "address",
          "name": "from",
          "type": "address"
        },
        {
          "indexed": true,
          "internalType": "address",
          "name": "to",
          "type": "address"
        },
        {
          "indexed": true,
          "internalType": "uint256",
          "name": "tokenId",
          "type": "uint256"
        }
      ],
      "name": "Transfer",
      "type": "event"
    },
    {
      "inputs": [
        {
          "internalType": "address",
          "name": "to",
          "type": "address"
        },
        {
          "internalType": "uint256",
          "name": "tokenId",
          "type": "uint256"
        }
      ],
      "name": "approve",
      "outputs": [],
      "stateMutability": "nonpayable",
      "type": "function"
    },
    {
      "inputs": [],
      "name": "availableTicketCount",
      "outputs": [
        {
          "internalType": "uint256",
          "name": "",
          "type": "uint256"
        }
      ],
      "stateMutability": "view",
      "type": "function"
    },
    {
      "inputs": [],
      "name": "availableTickets",
      "outputs": [
        {
          "internalType": "uint256",
          "name": "",
          "type": "uint256"
        }
      ],
      "stateMutability": "view",
      "type": "function"
    },
    {
      "inputs": [
        {
          "internalType": "address",
          "name": "owner",
          "type": "address"
        }
      ],
      "name": "balanceOf",
      "outputs": [
        {
          "internalType": "uint256",
          "name": "",
          "type": "uint256"
        }
      ],
      "stateMutability": "view",
      "type": "function"
    },
    {
      "inputs": [
        {
          "internalType": "address",
          "name": "walletAddress",
          "type": "address"
        }
      ],
      "name": "checkIn",
      "outputs": [],
      "stateMutability": "nonpayable",
      "type": "function"
    },
    {
      "inputs": [
        {
          "internalType": "address",
          "name": "",
          "type": "address"
        }
      ],
      "name": "checkIns",
      "outputs": [
        {
          "internalType": "bool",
          "name": "",
          "type": "bool"
        }
      ],
      "stateMutability": "view",
      "type": "function"
    },
    {
      "inputs": [],
      "name": "closeSale",
      "outputs": [],
      "stateMutability": "nonpayable",
      "type": "function"
    },
    {
      "inputs": [
        {
          "internalType": "address",
          "name": "walletAddress",
          "type": "address"
        }
      ],
      "name": "confirmOwnership",
      "outputs": [
        {
          "internalType": "bool",
          "name": "",
          "type": "bool"
        }
      ],
      "stateMutability": "view",
      "type": "function"
    },
    {
      "inputs": [
        {
          "internalType": "uint256",
          "name": "tokenId",
          "type": "uint256"
        }
      ],
      "name": "getApproved",
      "outputs": [
        {
          "internalType": "address",
          "name": "",
          "type": "address"
        }
      ],
      "stateMutability": "view",
      "type": "function"
    },
    {
      "inputs": [
        {
          "internalType": "address",
          "name": "",
          "type": "address"
        },
        {
          "internalType": "uint256",
          "name": "",
          "type": "uint256"
        }
      ],
      "name": "holderTokenIDs",
      "outputs": [
        {
          "internalType": "uint256",
          "name": "",
          "type": "uint256"
        }
      ],
      "stateMutability": "view",
      "type": "function"
    },
    {
      "inputs": [
        {
          "internalType": "address",
          "name": "owner",
          "type": "address"
        },
        {
          "internalType": "address",
          "name": "operator",
          "type": "address"
        }
      ],
      "name": "isApprovedForAll",
      "outputs": [
        {
          "internalType": "bool",
          "name": "",
          "type": "bool"
        }
      ],
      "stateMutability": "view",
      "type": "function"
    },
    {
      "inputs": [],
      "name": "mint",
      "outputs": [],
      "stateMutability": "payable",
      "type": "function"
    },
    {
      "inputs": [],
      "name": "mintPrice",
      "outputs": [
        {
          "internalType": "uint256",
          "name": "",
          "type": "uint256"
        }
      ],
      "stateMutability": "view",
      "type": "function"
    },
    {
      "inputs": [],
      "name": "name",
      "outputs": [
        {
          "internalType": "string",
          "name": "",
          "type": "string"
        }
      ],
      "stateMutability": "view",
      "type": "function"
    },
    {
      "inputs": [],
      "name": "openSale",
      "outputs": [],
      "stateMutability": "nonpayable",
      "type": "function"
    },
    {
      "inputs": [],
      "name": "owner",
      "outputs": [
        {
          "internalType": "address",
          "name": "",
          "type": "address"
        }
      ],
      "stateMutability": "view",
      "type": "function"
    },
    {
      "inputs": [
        {
          "internalType": "uint256",
          "name": "tokenId",
          "type": "uint256"
        }
      ],
      "name": "ownerOf",
      "outputs": [
        {
          "internalType": "address",
          "name": "",
          "type": "address"
        }
      ],
      "stateMutability": "view",
      "type": "function"
    },
    {
      "inputs": [],
      "name": "renounceOwnership",
      "outputs": [],
      "stateMutability": "nonpayable",
      "type": "function"
    },
    {
      "inputs": [
        {
          "internalType": "address",
          "name": "from",
          "type": "address"
        },
        {
          "internalType": "address",
          "name": "to",
          "type": "address"
        },
        {
          "internalType": "uint256",
          "name": "tokenId",
          "type": "uint256"
        }
      ],
      "name": "safeTransferFrom",
      "outputs": [],
      "stateMutability": "nonpayable",
      "type": "function"
    },
    {
      "inputs": [
        {
          "internalType": "address",
          "name": "from",
          "type": "address"
        },
        {
          "internalType": "address",
          "name": "to",
          "type": "address"
        },
        {
          "internalType": "uint256",
          "name": "tokenId",
          "type": "uint256"
        },
        {
          "internalType": "bytes",
          "name": "data",
          "type": "bytes"
        }
      ],
      "name": "safeTransferFrom",
      "outputs": [],
      "stateMutability": "nonpayable",
      "type": "function"
    },
    {
      "inputs": [],
      "name": "saleIsActive",
      "outputs": [
        {
          "internalType": "bool",
          "name": "",
          "type": "bool"
        }
      ],
      "stateMutability": "view",
      "type": "function"
    },
    {
      "inputs": [
        {
          "internalType": "address",
          "name": "operator",
          "type": "address"
        },
        {
          "internalType": "bool",
          "name": "approved",
          "type": "bool"
        }
      ],
      "name": "setApprovalForAll",
      "outputs": [],
      "stateMutability": "nonpayable",
      "type": "function"
    },
    {
      "inputs": [
        {
          "internalType": "bytes4",
          "name": "interfaceId",
          "type": "bytes4"
        }
      ],
      "name": "supportsInterface",
      "outputs": [
        {
          "internalType": "bool",
          "name": "",
          "type": "bool"
        }
      ],
      "stateMutability": "view",
      "type": "function"
    },
    {
      "inputs": [],
      "name": "symbol",
      "outputs": [
        {
          "internalType": "string",
          "name": "",
          "type": "string"
        }
      ],
      "stateMutability": "view",
      "type": "function"
    },
    {
      "inputs": [
        {
          "internalType": "uint256",
          "name": "tokenId",
          "type": "uint256"
        }
      ],
      "name": "tokenURI",
      "outputs": [
        {
          "internalType": "string",
          "name": "",
          "type": "string"
        }
      ],
      "stateMutability": "view",
      "type": "function"
    },
    {
      "inputs": [],
      "name": "totalTicketCount",
      "outputs": [
        {
          "internalType": "uint256",
          "name": "",
          "type": "uint256"
        }
      ],
      "stateMutability": "view",
      "type": "function"
    },
    {
      "inputs": [],
      "name": "totalTickets",
      "outputs": [
        {
          "internalType": "uint256",
          "name": "",
          "type": "uint256"
        }
      ],
      "stateMutability": "view",
      "type": "function"
    },
    {
      "inputs": [
        {
          "internalType": "address",
          "name": "from",
          "type": "address"
        },
        {
          "internalType": "address",
          "name": "to",
          "type": "address"
        },
        {
          "internalType": "uint256",
          "name": "tokenId",
          "type": "uint256"
        }
      ],
      "name": "transferFrom",
      "outputs": [],
      "stateMutability": "nonpayable",
      "type": "function"
    },
    {
      "inputs": [
        {
          "internalType": "address",
          "name": "newOwner",
          "type": "address"
        }
      ],
      "name": "transferOwnership",
      "outputs": [],
      "stateMutability": "nonpayable",
      "type": "function"
    }
  ],
  "transactionHash": "0x3fcb00f0f9c353aa7c97a3b158959255a28b478e932dfb70d90d1305714e880c",
  "args": [],
  "solcInputHash": "f7c0afe0c83e3bb3c2c1c2dfae9fa3bf",
  "bytecode": "0x60806040526009805460ff19169055600a808055600b5566b1a2bc2ec50000600c553480156200002e57600080fd5b50604051806040016040528060078152602001660a8f0c4d2a8d2f60cb1b815250604051806040016040528060078152602001660a8b08492a8d2f60cb1b81525081600090805190602001906200008792919062000136565b5080516200009d90600190602084019062000136565b505050620000ba620000b4620000d760201b60201c565b620000db565b620000d160086200012d60201b62000d501760201c565b62000219565b3390565b600780546001600160a01b038381166001600160a01b0319831681179093556040519116919082907f8be0079c531659141344cd1fd0a4f28419497f9722a3daafe3b4186f6b6457e090600090a35050565b80546001019055565b8280546200014490620001dc565b90600052602060002090601f016020900481019282620001685760008555620001b3565b82601f106200018357805160ff1916838001178555620001b3565b82800160010185558215620001b3579182015b82811115620001b357825182559160200191906001019062000196565b50620001c1929150620001c5565b5090565b5b80821115620001c15760008155600101620001c6565b600181811c90821680620001f157607f821691505b602082108114156200021357634e487b7160e01b600052602260045260246000fd5b50919050565b6120bd80620002296000396000f3fe6080604052600436106101c25760003560e01c806370a08231116100f7578063b88d4fde11610095578063e985e9c511610064578063e985e9c5146104db578063eb8d244414610524578063ee55efee1461053e578063f2fde38b1461055357600080fd5b8063b88d4fde14610465578063c87b56dd14610485578063d9a59e33146104a5578063dd11247e146104c557600080fd5b806382ac0bb8116100d157806382ac0bb8146103f25780638da5cb5b1461041257806395d89b4114610430578063a22cb4651461044557600080fd5b806370a0823114610385578063715018a6146103a557806380f2abe3146103ba57600080fd5b80631acc9b62116101645780633d721ecd1161013e5780633d721ecd1461031a57806342842e0e1461032f5780636352211e1461034f5780636817c76c1461036f57600080fd5b80631acc9b62146102b457806323b872dd146102e45780633cfa7e011461030457600080fd5b8063095ea7b3116101a0578063095ea7b3146102565780631249c58b1461027857806314558fab14610280578063167ff46f1461029f57600080fd5b806301ffc9a7146101c757806306fdde03146101fc578063081812fc1461021e575b600080fd5b3480156101d357600080fd5b506101e76101e2366004611a88565b610573565b60405190151581526020015b60405180910390f35b34801561020857600080fd5b506102116105c5565b6040516101f39190611e44565b34801561022a57600080fd5b5061023e610239366004611ac0565b610657565b6040516001600160a01b0390911681526020016101f3565b34801561026257600080fd5b50610276610271366004611a5f565b61067e565b005b610276610799565b34801561028c57600080fd5b50600a545b6040519081526020016101f3565b3480156102ab57600080fd5b50610276610926565b3480156102c057600080fd5b506101e76102cf3660046118c9565b600e6020526000908152604090205460ff1681565b3480156102f057600080fd5b506102766102ff366004611915565b61093d565b34801561031057600080fd5b50610291600b5481565b34801561032657600080fd5b50600b54610291565b34801561033b57600080fd5b5061027661034a366004611915565b61096e565b34801561035b57600080fd5b5061023e61036a366004611ac0565b610989565b34801561037b57600080fd5b50610291600c5481565b34801561039157600080fd5b506102916103a03660046118c9565b6109e9565b3480156103b157600080fd5b50610276610a6f565b3480156103c657600080fd5b506101e76103d53660046118c9565b6001600160a01b03166000908152600d6020526040902054151590565b3480156103fe57600080fd5b5061029161040d366004611a5f565b610a83565b34801561041e57600080fd5b506007546001600160a01b031661023e565b34801561043c57600080fd5b50610211610ab4565b34801561045157600080fd5b50610276610460366004611a25565b610ac3565b34801561047157600080fd5b50610276610480366004611950565b610ad2565b34801561049157600080fd5b506102116104a0366004611ac0565b610b0a565b3480156104b157600080fd5b506102766104c03660046118c9565b610c1b565b3480156104d157600080fd5b50610291600a5481565b3480156104e757600080fd5b506101e76104f63660046118e3565b6001600160a01b03918216600090815260056020908152604080832093909416825291909152205460ff1690565b34801561053057600080fd5b506009546101e79060ff1681565b34801561054a57600080fd5b50610276610cc3565b34801561055f57600080fd5b5061027661056e3660046118c9565b610cd7565b60006001600160e01b031982166380ac58cd60e01b14806105a457506001600160e01b03198216635b5e139f60e01b145b806105bf57506301ffc9a760e01b6001600160e01b03198316145b92915050565b6060600080546105d490611f85565b80601f016020809104026020016040519081016040528092919081815260200182805461060090611f85565b801561064d5780601f106106225761010080835404028352916020019161064d565b820191906000526020600020905b81548152906001019060200180831161063057829003601f168201915b5050505050905090565b600061066282610d59565b506000908152600460205260409020546001600160a01b031690565b600061068982610989565b9050806001600160a01b0316836001600160a01b031614156106fc5760405162461bcd60e51b815260206004820152602160248201527f4552433732313a20617070726f76616c20746f2063757272656e74206f776e656044820152603960f91b60648201526084015b60405180910390fd5b336001600160a01b0382161480610718575061071881336104f6565b61078a5760405162461bcd60e51b815260206004820152603e60248201527f4552433732313a20617070726f76652063616c6c6572206973206e6f7420746f60448201527f6b656e206f776e6572206e6f7220617070726f76656420666f7220616c6c000060648201526084016106f3565b6107948383610db8565b505050565b6000600b54116107dd5760405162461bcd60e51b815260206004820152600f60248201526e1d1a58dad95d1cc81bdd5d1cdbdb19608a1b60448201526064016106f3565b600c543410156108225760405162461bcd60e51b815260206004820152601060248201526f0d2dce6eaccccd2c6d2cadce8408aa8960831b60448201526064016106f3565b60095460ff1661087e5760405162461bcd60e51b815260206004820152602160248201527f5469636b657473206172652063757272656e746c7920756e617661696c61626c6044820152606560f81b60648201526084016106f3565b60006108b861089461088f60085490565b610e26565b6040516020016108a49190611c9d565b604051602081830303815290604052610f40565b90506000816040516020016108cd9190611dc2565b60405160208183030381529060405290506108f0336108eb60085490565b6110a2565b6109026108fc60085490565b826110bc565b610910600880546001019055565b6001600b5461091f9190611f42565b600b555050565b61092e611156565b6009805460ff19166001179055565b61094733826111b0565b6109635760405162461bcd60e51b81526004016106f390611ea9565b61079483838361122e565b61079483838360405180602001604052806000815250610ad2565b6000818152600260205260408120546001600160a01b0316806105bf5760405162461bcd60e51b8152602060048201526018602482015277115490cdcc8c4e881a5b9d985b1a59081d1bdad95b88125160421b60448201526064016106f3565b60006001600160a01b038216610a535760405162461bcd60e51b815260206004820152602960248201527f4552433732313a2061646472657373207a65726f206973206e6f7420612076616044820152683634b21037bbb732b960b91b60648201526084016106f3565b506001600160a01b031660009081526003602052604090205490565b610a77611156565b610a8160006113ca565b565b600d6020528160005260406000208181548110610a9f57600080fd5b90600052602060002001600091509150505481565b6060600180546105d490611f85565b610ace33838361141c565b5050565b610adc33836111b0565b610af85760405162461bcd60e51b81526004016106f390611ea9565b610b04848484846114eb565b50505050565b6060610b1582610d59565b60008281526006602052604081208054610b2e90611f85565b80601f0160208091040260200160405190810160405280929190818152602001828054610b5a90611f85565b8015610ba75780601f10610b7c57610100808354040283529160200191610ba7565b820191906000526020600020905b815481529060010190602001808311610b8a57829003601f168201915b505050505090506000610bc560408051602081019091526000815290565b9050805160001415610bd8575092915050565b815115610c0a578082604051602001610bf2929190611b4a565b60405160208183030381529060405292505050919050565b610c138461151e565b949350505050565b6001600160a01b0381166000908152600e60209081526040808320805460ff19166001179055600d909152812080548290610c6657634e487b7160e01b600052603260045260246000fd5b906000526020600020015490506000610c91610c8183610e26565b6040516020016108a49190611b79565b9050600081604051602001610ca69190611dc2565b6040516020818303038152906040529050610b046108fc60085490565b610ccb611156565b6009805460ff19169055565b610cdf611156565b6001600160a01b038116610d445760405162461bcd60e51b815260206004820152602660248201527f4f776e61626c653a206e6577206f776e657220697320746865207a65726f206160448201526564647265737360d01b60648201526084016106f3565b610d4d816113ca565b50565b80546001019055565b6000818152600260205260409020546001600160a01b0316610d4d5760405162461bcd60e51b8152602060048201526018602482015277115490cdcc8c4e881a5b9d985b1a59081d1bdad95b88125160421b60448201526064016106f3565b600081815260046020526040902080546001600160a01b0319166001600160a01b0384169081179091558190610ded82610989565b6001600160a01b03167f8c5be1e5ebec7d5bd14f71427d1e84f3dd0314c0f7b2291e5b200ac8c7c3b92560405160405180910390a45050565b606081610e4a5750506040805180820190915260018152600360fc1b602082015290565b8160005b8115610e745780610e5e81611fc0565b9150610e6d9050600a83611f0f565b9150610e4e565b60008167ffffffffffffffff811115610e9d57634e487b7160e01b600052604160045260246000fd5b6040519080825280601f01601f191660200182016040528015610ec7576020820181803683370190505b5090505b8415610c1357610edc600183611f42565b9150610ee9600a86611fdb565b610ef4906030611ef7565b60f81b818381518110610f1757634e487b7160e01b600052603260045260246000fd5b60200101906001600160f81b031916908160001a905350610f39600a86611f0f565b9450610ecb565b6060815160001415610f6057505060408051602081019091526000815290565b60006040518060600160405280604081526020016120486040913990506000600384516002610f8f9190611ef7565b610f999190611f0f565b610fa4906004611f23565b67ffffffffffffffff811115610fca57634e487b7160e01b600052604160045260246000fd5b6040519080825280601f01601f191660200182016040528015610ff4576020820181803683370190505b509050600182016020820185865187015b80821015611060576003820191508151603f8160121c168501518453600184019350603f81600c1c168501518453600184019350603f8160061c168501518453600184019350603f8116850151845350600183019250611005565b505060038651066001811461107c576002811461108f57611097565b603d6001830353603d6002830353611097565b603d60018303535b509195945050505050565b610ace828260405180602001604052806000815250611592565b6000828152600260205260409020546001600160a01b03166111375760405162461bcd60e51b815260206004820152602e60248201527f45524337323155524953746f726167653a2055524920736574206f66206e6f6e60448201526d32bc34b9ba32b73a103a37b5b2b760911b60648201526084016106f3565b6000828152600660209081526040909120825161079492840190611814565b6007546001600160a01b03163314610a815760405162461bcd60e51b815260206004820181905260248201527f4f776e61626c653a2063616c6c6572206973206e6f7420746865206f776e657260448201526064016106f3565b6000806111bc83610989565b9050806001600160a01b0316846001600160a01b0316148061120357506001600160a01b0380821660009081526005602090815260408083209388168352929052205460ff165b80610c135750836001600160a01b031661121c84610657565b6001600160a01b031614949350505050565b826001600160a01b031661124182610989565b6001600160a01b0316146112a55760405162461bcd60e51b815260206004820152602560248201527f4552433732313a207472616e736665722066726f6d20696e636f72726563742060448201526437bbb732b960d91b60648201526084016106f3565b6001600160a01b0382166113075760405162461bcd60e51b8152602060048201526024808201527f4552433732313a207472616e7366657220746f20746865207a65726f206164646044820152637265737360e01b60648201526084016106f3565b611312600082610db8565b6001600160a01b038316600090815260036020526040812080546001929061133b908490611f42565b90915550506001600160a01b0382166000908152600360205260408120805460019290611369908490611ef7565b909155505060008181526002602052604080822080546001600160a01b0319166001600160a01b0386811691821790925591518493918716917fddf252ad1be2c89b69c2b068fc378daa952ba7f163c4a11628f55a4df523b3ef91a4505050565b600780546001600160a01b038381166001600160a01b0319831681179093556040519116919082907f8be0079c531659141344cd1fd0a4f28419497f9722a3daafe3b4186f6b6457e090600090a35050565b816001600160a01b0316836001600160a01b0316141561147e5760405162461bcd60e51b815260206004820152601960248201527f4552433732313a20617070726f766520746f2063616c6c65720000000000000060448201526064016106f3565b6001600160a01b03838116600081815260056020908152604080832094871680845294825291829020805460ff191686151590811790915591519182527f17307eab39ab6107e8899845ad3d59bd9653f200f220920489ca2b5937696c31910160405180910390a3505050565b6114f684848461122e565b611502848484846115c5565b610b045760405162461bcd60e51b81526004016106f390611e57565b606061152982610d59565b600061154060408051602081019091526000815290565b90506000815111611560576040518060200160405280600081525061158b565b8061156a84610e26565b60405160200161157b929190611b4a565b6040516020818303038152906040525b9392505050565b61159c83836116d2565b6115a960008484846115c5565b6107945760405162461bcd60e51b81526004016106f390611e57565b60006001600160a01b0384163b156116c757604051630a85bd0160e11b81526001600160a01b0385169063150b7a0290611609903390899088908890600401611e07565b602060405180830381600087803b15801561162357600080fd5b505af1925050508015611653575060408051601f3d908101601f1916820190925261165091810190611aa4565b60015b6116ad573d808015611681576040519150601f19603f3d011682016040523d82523d6000602084013e611686565b606091505b5080516116a55760405162461bcd60e51b81526004016106f390611e57565b805181602001fd5b6001600160e01b031916630a85bd0160e11b149050610c13565b506001949350505050565b6001600160a01b0382166117285760405162461bcd60e51b815260206004820181905260248201527f4552433732313a206d696e7420746f20746865207a65726f206164647265737360448201526064016106f3565b6000818152600260205260409020546001600160a01b03161561178d5760405162461bcd60e51b815260206004820152601c60248201527f4552433732313a20746f6b656e20616c7265616479206d696e7465640000000060448201526064016106f3565b6001600160a01b03821660009081526003602052604081208054600192906117b6908490611ef7565b909155505060008181526002602052604080822080546001600160a01b0319166001600160a01b03861690811790915590518392907fddf252ad1be2c89b69c2b068fc378daa952ba7f163c4a11628f55a4df523b3ef908290a45050565b82805461182090611f85565b90600052602060002090601f0160209004810192826118425760008555611888565b82601f1061185b57805160ff1916838001178555611888565b82800160010185558215611888579182015b8281111561188857825182559160200191906001019061186d565b50611894929150611898565b5090565b5b808211156118945760008155600101611899565b80356001600160a01b03811681146118c457600080fd5b919050565b6000602082840312156118da578081fd5b61158b826118ad565b600080604083850312156118f5578081fd5b6118fe836118ad565b915061190c602084016118ad565b90509250929050565b600080600060608486031215611929578081fd5b611932846118ad565b9250611940602085016118ad565b9150604084013590509250925092565b60008060008060808587031215611965578081fd5b61196e856118ad565b935061197c602086016118ad565b925060408501359150606085013567ffffffffffffffff8082111561199f578283fd5b818701915087601f8301126119b2578283fd5b8135818111156119c4576119c461201b565b604051601f8201601f19908116603f011681019083821181831017156119ec576119ec61201b565b816040528281528a6020848701011115611a04578586fd5b82602086016020830137918201602001949094529598949750929550505050565b60008060408385031215611a37578182fd5b611a40836118ad565b915060208301358015158114611a54578182fd5b809150509250929050565b60008060408385031215611a71578182fd5b611a7a836118ad565b946020939093013593505050565b600060208284031215611a99578081fd5b813561158b81612031565b600060208284031215611ab5578081fd5b815161158b81612031565b600060208284031215611ad1578081fd5b5035919050565b60008151808452611af0816020860160208601611f59565b601f01601f19169290920160200192915050565b7f222c20226465736372697074696f6e223a202241204e46542d706f77657265648152730103a34b1b5b2ba34b7339039bcb9ba32b69116160651b602082015260340190565b60008351611b5c818460208801611f59565b835190830190611b70818360208801611f59565b01949350505050565b737b20226e616d65223a202254786269546978202360601b81528151600090611ba9816014850160208701611f59565b611bb7601482850101611b04565b7f22747261697473223a205b7b202274726169745f74797065223a20224368656381527f6b656420496e222c202276616c7565223a20227472756522207d2c207b20227460208201527f726169745f74797065223a2022507572636861736564222c202276616c75652260408201526c01d10113a393ab291103eae961609d1b60608201527f22696d616765223a20697066733a2f2f516d5878477842645a7550445334444d606d8201527f69585a4c657578796761575037444b5a7a6677387a4e38585737444238702220608d820152607d60f81b60ad82015260ae01949350505050565b737b20226e616d65223a202254786269546978202360601b81528151600090611ccd816014850160208701611f59565b611cdb601482850101611b04565b7f22747261697473223a205b7b202274726169745f74797065223a20224368656381527f6b656420496e222c202276616c7565223a202266616c736522207d2c207b202260208201527f74726169745f74797065223a2022507572636861736564222c202276616c756560408201526d0111d10113a393ab291103eae96160951b60608201527f22696d616765223a20697066733a2f2f516d5051337772624138553933433448606e8201527f6f317745613672767974516f4272564d376856763441626364766464617a2220608e820152607d60f81b60ae82015260af01949350505050565b7f646174613a6170706c69636174696f6e2f6a736f6e3b6261736536342c000000815260008251611dfa81601d850160208701611f59565b91909101601d0192915050565b6001600160a01b0385811682528416602082015260408101839052608060608201819052600090611e3a90830184611ad8565b9695505050505050565b60208152600061158b6020830184611ad8565b60208082526032908201527f4552433732313a207472616e7366657220746f206e6f6e20455243373231526560408201527131b2b4bb32b91034b6b83632b6b2b73a32b960711b606082015260800190565b6020808252602e908201527f4552433732313a2063616c6c6572206973206e6f7420746f6b656e206f776e6560408201526d1c881b9bdc88185c1c1c9bdd995960921b606082015260800190565b60008219821115611f0a57611f0a611fef565b500190565b600082611f1e57611f1e612005565b500490565b6000816000190483118215151615611f3d57611f3d611fef565b500290565b600082821015611f5457611f54611fef565b500390565b60005b83811015611f74578181015183820152602001611f5c565b83811115610b045750506000910152565b600181811c90821680611f9957607f821691505b60208210811415611fba57634e487b7160e01b600052602260045260246000fd5b50919050565b6000600019821415611fd457611fd4611fef565b5060010190565b600082611fea57611fea612005565b500690565b634e487b7160e01b600052601160045260246000fd5b634e487b7160e01b600052601260045260246000fd5b634e487b7160e01b600052604160045260246000fd5b6001600160e01b031981168114610d4d57600080fdfe4142434445464748494a4b4c4d4e4f505152535455565758595a6162636465666768696a6b6c6d6e6f707172737475767778797a303132333435363738392b2fa26469706673582212206b06f413daa7f482ceab75f47b8d04b2d70668b45a72b86b963c6760e1f6989e64736f6c63430008040033",
  "devdoc": {
    "kind": "dev",
    "methods": {
      "approve(address,uint256)": {
        "details": "See {IERC721-approve}."
      },
      "balanceOf(address)": {
        "details": "See {IERC721-balanceOf}."
      },
      "getApproved(uint256)": {
        "details": "See {IERC721-getApproved}."
      },
      "isApprovedForAll(address,address)": {
        "details": "See {IERC721-isApprovedForAll}."
      },
      "name()": {
        "details": "See {IERC721Metadata-name}."
      },
      "owner()": {
        "details": "Returns the address of the current owner."
      },
      "ownerOf(uint256)": {
        "details": "See {IERC721-ownerOf}."
      },
      "renounceOwnership()": {
        "details": "Leaves the contract without owner. It will not be possible to call `onlyOwner` functions anymore. Can only be called by the current owner. NOTE: Renouncing ownership will leave the contract without an owner, thereby removing any functionality that is only available to the owner."
      },
      "safeTransferFrom(address,address,uint256)": {
        "details": "See {IERC721-safeTransferFrom}."
      },
      "safeTransferFrom(address,address,uint256,bytes)": {
        "details": "See {IERC721-safeTransferFrom}."
      },
      "setApprovalForAll(address,bool)": {
        "details": "See {IERC721-setApprovalForAll}."
      },
      "supportsInterface(bytes4)": {
        "details": "See {IERC165-supportsInterface}."
      },
      "symbol()": {
        "details": "See {IERC721Metadata-symbol}."
      },
      "tokenURI(uint256)": {
        "details": "See {IERC721Metadata-tokenURI}."
      },
      "transferFrom(address,address,uint256)": {
        "details": "See {IERC721-transferFrom}."
      },
      "transferOwnership(address)": {
        "details": "Transfers ownership of the contract to a new account (`newOwner`). Can only be called by the current owner."
      }
    },
    "version": 1
  },
  "userdoc": {
    "kind": "user",
    "methods": {},
    "version": 1
  },
  "storageLayout": {
    "storage": [
      {
        "astId": 138,
        "contract": "contracts/TxbiTix.sol:TxbiTix",
        "label": "_name",
        "offset": 0,
        "slot": "0",
        "type": "t_string_storage"
      },
      {
        "astId": 140,
        "contract": "contracts/TxbiTix.sol:TxbiTix",
        "label": "_symbol",
        "offset": 0,
        "slot": "1",
        "type": "t_string_storage"
      },
      {
        "astId": 144,
        "contract": "contracts/TxbiTix.sol:TxbiTix",
        "label": "_owners",
        "offset": 0,
        "slot": "2",
        "type": "t_mapping(t_uint256,t_address)"
      },
      {
        "astId": 148,
        "contract": "contracts/TxbiTix.sol:TxbiTix",
        "label": "_balances",
        "offset": 0,
        "slot": "3",
        "type": "t_mapping(t_address,t_uint256)"
      },
      {
        "astId": 152,
        "contract": "contracts/TxbiTix.sol:TxbiTix",
        "label": "_tokenApprovals",
        "offset": 0,
        "slot": "4",
        "type": "t_mapping(t_uint256,t_address)"
      },
      {
        "astId": 158,
        "contract": "contracts/TxbiTix.sol:TxbiTix",
        "label": "_operatorApprovals",
        "offset": 0,
        "slot": "5",
        "type": "t_mapping(t_address,t_mapping(t_address,t_bool))"
      },
      {
        "astId": 1126,
        "contract": "contracts/TxbiTix.sol:TxbiTix",
        "label": "_tokenURIs",
        "offset": 0,
        "slot": "6",
        "type": "t_mapping(t_uint256,t_string_storage)"
      },
      {
        "astId": 7,
        "contract": "contracts/TxbiTix.sol:TxbiTix",
        "label": "_owner",
        "offset": 0,
        "slot": "7",
        "type": "t_address"
      },
      {
        "astId": 1984,
        "contract": "contracts/TxbiTix.sol:TxbiTix",
        "label": "currentId",
        "offset": 0,
        "slot": "8",
        "type": "t_struct(Counter)1635_storage"
      },
      {
        "astId": 1987,
        "contract": "contracts/TxbiTix.sol:TxbiTix",
        "label": "saleIsActive",
        "offset": 0,
        "slot": "9",
        "type": "t_bool"
      },
      {
        "astId": 1990,
        "contract": "contracts/TxbiTix.sol:TxbiTix",
        "label": "totalTickets",
        "offset": 0,
        "slot": "10",
        "type": "t_uint256"
      },
      {
        "astId": 1993,
        "contract": "contracts/TxbiTix.sol:TxbiTix",
        "label": "availableTickets",
        "offset": 0,
        "slot": "11",
        "type": "t_uint256"
      },
      {
        "astId": 1996,
        "contract": "contracts/TxbiTix.sol:TxbiTix",
        "label": "mintPrice",
        "offset": 0,
        "slot": "12",
        "type": "t_uint256"
      },
      {
        "astId": 2001,
        "contract": "contracts/TxbiTix.sol:TxbiTix",
        "label": "holderTokenIDs",
        "offset": 0,
        "slot": "13",
        "type": "t_mapping(t_address,t_array(t_uint256)dyn_storage)"
      },
      {
        "astId": 2005,
        "contract": "contracts/TxbiTix.sol:TxbiTix",
        "label": "checkIns",
        "offset": 0,
        "slot": "14",
        "type": "t_mapping(t_address,t_bool)"
      }
    ],
    "types": {
      "t_address": {
        "encoding": "inplace",
        "label": "address",
        "numberOfBytes": "20"
      },
      "t_array(t_uint256)dyn_storage": {
        "base": "t_uint256",
        "encoding": "dynamic_array",
        "label": "uint256[]",
        "numberOfBytes": "32"
      },
      "t_bool": {
        "encoding": "inplace",
        "label": "bool",
        "numberOfBytes": "1"
      },
      "t_mapping(t_address,t_array(t_uint256)dyn_storage)": {
        "encoding": "mapping",
        "key": "t_address",
        "label": "mapping(address => uint256[])",
        "numberOfBytes": "32",
        "value": "t_array(t_uint256)dyn_storage"
      },
      "t_mapping(t_address,t_bool)": {
        "encoding": "mapping",
        "key": "t_address",
        "label": "mapping(address => bool)",
        "numberOfBytes": "32",
        "value": "t_bool"
      },
      "t_mapping(t_address,t_mapping(t_address,t_bool))": {
        "encoding": "mapping",
        "key": "t_address",
        "label": "mapping(address => mapping(address => bool))",
        "numberOfBytes": "32",
        "value": "t_mapping(t_address,t_bool)"
      },
      "t_mapping(t_address,t_uint256)": {
        "encoding": "mapping",
        "key": "t_address",
        "label": "mapping(address => uint256)",
        "numberOfBytes": "32",
        "value": "t_uint256"
      },
      "t_mapping(t_uint256,t_address)": {
        "encoding": "mapping",
        "key": "t_uint256",
        "label": "mapping(uint256 => address)",
        "numberOfBytes": "32",
        "value": "t_address"
      },
      "t_mapping(t_uint256,t_string_storage)": {
        "encoding": "mapping",
        "key": "t_uint256",
        "label": "mapping(uint256 => string)",
        "numberOfBytes": "32",
        "value": "t_string_storage"
      },
      "t_string_storage": {
        "encoding": "bytes",
        "label": "string",
        "numberOfBytes": "32"
      },
      "t_struct(Counter)1635_storage": {
        "encoding": "inplace",
        "label": "struct Counters.Counter",
        "members": [
          {
            "astId": 1634,
            "contract": "contracts/TxbiTix.sol:TxbiTix",
            "label": "_value",
            "offset": 0,
            "slot": "0",
            "type": "t_uint256"
          }
        ],
        "numberOfBytes": "32"
      },
      "t_uint256": {
        "encoding": "inplace",
        "label": "uint256",
        "numberOfBytes": "32"
      }
    }
  }
}