{
  "_format": "hh-sol-artifact-1",
  "contractName": "TxbiTix",
  "sourceName": "contracts/TxbiTix.sol",
  "abi": [
    {
      "inputs": [],
      "stateMutability": "nonpayable",
      "type": "constructor"
    },
    {
      "anonymous": false,
      "inputs": [
        {
          "indexed": true,
          "internalType": "address",
          "name": "owner",
          "type": "address"
        },
        {
          "indexed": true,
          "internalType": "address",
          "name": "approved",
          "type": "address"
        },
        {
          "indexed": true,
          "internalType": "uint256",
          "name": "tokenId",
          "type": "uint256"
        }
      ],
      "name": "Approval",
      "type": "event"
    },
    {
      "anonymous": false,
      "inputs": [
        {
          "indexed": true,
          "internalType": "address",
          "name": "owner",
          "type": "address"
        },
        {
          "indexed": true,
          "internalType": "address",
          "name": "operator",
          "type": "address"
        },
        {
          "indexed": false,
          "internalType": "bool",
          "name": "approved",
          "type": "bool"
        }
      ],
      "name": "ApprovalForAll",
      "type": "event"
    },
    {
      "anonymous": false,
      "inputs": [
        {
          "indexed": true,
          "internalType": "address",
          "name": "from",
          "type": "address"
        },
        {
          "indexed": true,
          "internalType": "address",
          "name": "to",
          "type": "address"
        },
        {
          "indexed": true,
          "internalType": "uint256",
          "name": "tokenId",
          "type": "uint256"
        }
      ],
      "name": "Transfer",
      "type": "event"
    },
    {
      "inputs": [
        {
          "internalType": "address",
          "name": "to",
          "type": "address"
        },
        {
          "internalType": "uint256",
          "name": "tokenId",
          "type": "uint256"
        }
      ],
      "name": "approve",
      "outputs": [],
      "stateMutability": "nonpayable",
      "type": "function"
    },
    {
      "inputs": [],
      "name": "availableTicketCount",
      "outputs": [
        {
          "internalType": "uint256",
          "name": "",
          "type": "uint256"
        }
      ],
      "stateMutability": "view",
      "type": "function"
    },
    {
      "inputs": [],
      "name": "availableTickets",
      "outputs": [
        {
          "internalType": "uint256",
          "name": "",
          "type": "uint256"
        }
      ],
      "stateMutability": "view",
      "type": "function"
    },
    {
      "inputs": [
        {
          "internalType": "address",
          "name": "owner",
          "type": "address"
        }
      ],
      "name": "balanceOf",
      "outputs": [
        {
          "internalType": "uint256",
          "name": "",
          "type": "uint256"
        }
      ],
      "stateMutability": "view",
      "type": "function"
    },
    {
      "inputs": [],
      "name": "closeSale",
      "outputs": [],
      "stateMutability": "nonpayable",
      "type": "function"
    },
    {
      "inputs": [
        {
          "internalType": "uint256",
          "name": "tokenId",
          "type": "uint256"
        }
      ],
      "name": "getApproved",
      "outputs": [
        {
          "internalType": "address",
          "name": "",
          "type": "address"
        }
      ],
      "stateMutability": "view",
      "type": "function"
    },
    {
      "inputs": [
        {
          "internalType": "address",
          "name": "",
          "type": "address"
        },
        {
          "internalType": "uint256",
          "name": "",
          "type": "uint256"
        }
      ],
      "name": "holderTokenIDs",
      "outputs": [
        {
          "internalType": "uint256",
          "name": "",
          "type": "uint256"
        }
      ],
      "stateMutability": "view",
      "type": "function"
    },
    {
      "inputs": [
        {
          "internalType": "address",
          "name": "owner",
          "type": "address"
        },
        {
          "internalType": "address",
          "name": "operator",
          "type": "address"
        }
      ],
      "name": "isApprovedForAll",
      "outputs": [
        {
          "internalType": "bool",
          "name": "",
          "type": "bool"
        }
      ],
      "stateMutability": "view",
      "type": "function"
    },
    {
      "inputs": [],
      "name": "mint",
      "outputs": [],
      "stateMutability": "nonpayable",
      "type": "function"
    },
    {
      "inputs": [],
      "name": "name",
      "outputs": [
        {
          "internalType": "string",
          "name": "",
          "type": "string"
        }
      ],
      "stateMutability": "view",
      "type": "function"
    },
    {
      "inputs": [],
      "name": "openSale",
      "outputs": [],
      "stateMutability": "nonpayable",
      "type": "function"
    },
    {
      "inputs": [
        {
          "internalType": "uint256",
          "name": "tokenId",
          "type": "uint256"
        }
      ],
      "name": "ownerOf",
      "outputs": [
        {
          "internalType": "address",
          "name": "",
          "type": "address"
        }
      ],
      "stateMutability": "view",
      "type": "function"
    },
    {
      "inputs": [
        {
          "internalType": "address",
          "name": "from",
          "type": "address"
        },
        {
          "internalType": "address",
          "name": "to",
          "type": "address"
        },
        {
          "internalType": "uint256",
          "name": "tokenId",
          "type": "uint256"
        }
      ],
      "name": "safeTransferFrom",
      "outputs": [],
      "stateMutability": "nonpayable",
      "type": "function"
    },
    {
      "inputs": [
        {
          "internalType": "address",
          "name": "from",
          "type": "address"
        },
        {
          "internalType": "address",
          "name": "to",
          "type": "address"
        },
        {
          "internalType": "uint256",
          "name": "tokenId",
          "type": "uint256"
        },
        {
          "internalType": "bytes",
          "name": "data",
          "type": "bytes"
        }
      ],
      "name": "safeTransferFrom",
      "outputs": [],
      "stateMutability": "nonpayable",
      "type": "function"
    },
    {
      "inputs": [],
      "name": "saleIsActive",
      "outputs": [
        {
          "internalType": "bool",
          "name": "",
          "type": "bool"
        }
      ],
      "stateMutability": "view",
      "type": "function"
    },
    {
      "inputs": [
        {
          "internalType": "address",
          "name": "operator",
          "type": "address"
        },
        {
          "internalType": "bool",
          "name": "approved",
          "type": "bool"
        }
      ],
      "name": "setApprovalForAll",
      "outputs": [],
      "stateMutability": "nonpayable",
      "type": "function"
    },
    {
      "inputs": [
        {
          "internalType": "bytes4",
          "name": "interfaceId",
          "type": "bytes4"
        }
      ],
      "name": "supportsInterface",
      "outputs": [
        {
          "internalType": "bool",
          "name": "",
          "type": "bool"
        }
      ],
      "stateMutability": "view",
      "type": "function"
    },
    {
      "inputs": [],
      "name": "symbol",
      "outputs": [
        {
          "internalType": "string",
          "name": "",
          "type": "string"
        }
      ],
      "stateMutability": "view",
      "type": "function"
    },
    {
      "inputs": [
        {
          "internalType": "uint256",
          "name": "tokenId",
          "type": "uint256"
        }
      ],
      "name": "tokenURI",
      "outputs": [
        {
          "internalType": "string",
          "name": "",
          "type": "string"
        }
      ],
      "stateMutability": "view",
      "type": "function"
    },
    {
      "inputs": [],
      "name": "totalTicketCount",
      "outputs": [
        {
          "internalType": "uint256",
          "name": "",
          "type": "uint256"
        }
      ],
      "stateMutability": "view",
      "type": "function"
    },
    {
      "inputs": [],
      "name": "totalTickets",
      "outputs": [
        {
          "internalType": "uint256",
          "name": "",
          "type": "uint256"
        }
      ],
      "stateMutability": "view",
      "type": "function"
    },
    {
      "inputs": [
        {
          "internalType": "address",
          "name": "from",
          "type": "address"
        },
        {
          "internalType": "address",
          "name": "to",
          "type": "address"
        },
        {
          "internalType": "uint256",
          "name": "tokenId",
          "type": "uint256"
        }
      ],
      "name": "transferFrom",
      "outputs": [],
      "stateMutability": "nonpayable",
      "type": "function"
    }
  ],
  "bytecode": "0x60806040526008805460ff19169055600a600981905580553480156200002457600080fd5b50604051806040016040528060078152602001660a8f0c4d2a8d2f60cb1b815250604051806040016040528060078152602001660a8b08492a8d2f60cb1b81525081600090805190602001906200007d9291906200015c565b508051620000939060019060208401906200015c565b505050620000ad6007620000df60201b6200086a1760201c565b620000d9620000c86007620000e860201b620008731760201c565b620000ec60201b620008771760201c565b6200023f565b80546001019055565b5490565b62000138816040516024016200010491815260200190565b60408051601f198184030181529190526020810180516001600160e01b0390811663f5b1bba960e01b179091526200013b16565b50565b80516a636f6e736f6c652e6c6f67602083016000808483855afa5050505050565b8280546200016a9062000202565b90600052602060002090601f0160209004810192826200018e5760008555620001d9565b82601f10620001a957805160ff1916838001178555620001d9565b82800160010185558215620001d9579182015b82811115620001d9578251825591602001919060010190620001bc565b50620001e7929150620001eb565b5090565b5b80821115620001e75760008155600101620001ec565b600181811c908216806200021757607f821691505b602082108114156200023957634e487b7160e01b600052602260045260246000fd5b50919050565b6115d0806200024f6000396000f3fe608060405234801561001057600080fd5b50600436106101425760003560e01c80636352211e116100b8578063b88d4fde1161007c578063b88d4fde1461027b578063c87b56dd1461028e578063dd11247e146102a1578063e985e9c5146102aa578063eb8d2444146102e6578063ee55efee146102f357600080fd5b80636352211e1461022757806370a082311461023a57806382ac0bb81461024d57806395d89b4114610260578063a22cb4651461026857600080fd5b806314558fab1161010a57806314558fab146101cc578063167ff46f146101de57806323b872dd146101f05780633cfa7e01146102035780633d721ecd1461020c57806342842e0e1461021457600080fd5b806301ffc9a71461014757806306fdde031461016f578063081812fc14610184578063095ea7b3146101af5780631249c58b146101c4575b600080fd5b61015a6101553660046112ce565b610302565b60405190151581526020015b60405180910390f35b610177610354565b60405161016691906113b6565b610197610192366004611306565b6103e6565b6040516001600160a01b039091168152602001610166565b6101c26101bd3660046112a5565b61040d565b005b6101c2610528565b6009545b604051908152602001610166565b6101c26008805460ff19166001179055565b6101c26101fe36600461115b565b6105a0565b6101d0600a5481565b600a546101d0565b6101c261022236600461115b565b6105d1565b610197610235366004611306565b6105ec565b6101d061024836600461110f565b61064c565b6101d061025b3660046112a5565b6106d2565b610177610703565b6101c261027636600461126b565b610712565b6101c2610289366004611196565b610721565b61017761029c366004611306565b610759565b6101d060095481565b61015a6102b8366004611129565b6001600160a01b03918216600090815260056020908152604080832093909416825291909152205460ff1690565b60085461015a9060ff1681565b6101c26008805460ff19169055565b60006001600160e01b031982166380ac58cd60e01b148061033357506001600160e01b03198216635b5e139f60e01b145b8061034e57506301ffc9a760e01b6001600160e01b03198316145b92915050565b606060008054610363906114d8565b80601f016020809104026020016040519081016040528092919081815260200182805461038f906114d8565b80156103dc5780601f106103b1576101008083540402835291602001916103dc565b820191906000526020600020905b8154815290600101906020018083116103bf57829003601f168201915b5050505050905090565b60006103f1826108bf565b506000908152600460205260409020546001600160a01b031690565b6000610418826105ec565b9050806001600160a01b0316836001600160a01b0316141561048b5760405162461bcd60e51b815260206004820152602160248201527f4552433732313a20617070726f76616c20746f2063757272656e74206f776e656044820152603960f91b60648201526084015b60405180910390fd5b336001600160a01b03821614806104a757506104a781336102b8565b6105195760405162461bcd60e51b815260206004820152603e60248201527f4552433732313a20617070726f76652063616c6c6572206973206e6f7420746f60448201527f6b656e206f776e6572206e6f7220617070726f76656420666f7220616c6c00006064820152608401610482565b610523838361091e565b505050565b6000600a541161056c5760405162461bcd60e51b815260206004820152600f60248201526e1d1a58dad95d1cc81bdd5d1cdbdb19608a1b6044820152606401610482565b61057e3361057960075490565b61098c565b61058c600780546001019055565b6001600a5461059b9190611495565b600a55565b6105aa33826109a6565b6105c65760405162461bcd60e51b81526004016104829061141b565b610523838383610a24565b61052383838360405180602001604052806000815250610721565b6000818152600260205260408120546001600160a01b03168061034e5760405162461bcd60e51b8152602060048201526018602482015277115490cdcc8c4e881a5b9d985b1a59081d1bdad95b88125160421b6044820152606401610482565b60006001600160a01b0382166106b65760405162461bcd60e51b815260206004820152602960248201527f4552433732313a2061646472657373207a65726f206973206e6f7420612076616044820152683634b21037bbb732b960b91b6064820152608401610482565b506001600160a01b031660009081526003602052604090205490565b600b60205281600052604060002081815481106106ee57600080fd5b90600052602060002001600091509150505481565b606060018054610363906114d8565b61071d338383610bc0565b5050565b61072b33836109a6565b6107475760405162461bcd60e51b81526004016104829061141b565b61075384848484610c8f565b50505050565b6060610764826108bf565b6000828152600660205260408120805461077d906114d8565b80601f01602080910402602001604051908101604052809291908181526020018280546107a9906114d8565b80156107f65780601f106107cb576101008083540402835291602001916107f6565b820191906000526020600020905b8154815290600101906020018083116107d957829003601f168201915b50505050509050600061081460408051602081019091526000815290565b9050805160001415610827575092915050565b81511561085957808260405160200161084192919061134a565b60405160208183030381529060405292505050919050565b61086284610cc2565b949350505050565b80546001019055565b5490565b6108bc8160405160240161088d91815260200190565b60408051601f198184030181529190526020810180516001600160e01b031663f5b1bba960e01b179052610d36565b50565b6000818152600260205260409020546001600160a01b03166108bc5760405162461bcd60e51b8152602060048201526018602482015277115490cdcc8c4e881a5b9d985b1a59081d1bdad95b88125160421b6044820152606401610482565b600081815260046020526040902080546001600160a01b0319166001600160a01b0384169081179091558190610953826105ec565b6001600160a01b03167f8c5be1e5ebec7d5bd14f71427d1e84f3dd0314c0f7b2291e5b200ac8c7c3b92560405160405180910390a45050565b61071d828260405180602001604052806000815250610d57565b6000806109b2836105ec565b9050806001600160a01b0316846001600160a01b031614806109f957506001600160a01b0380821660009081526005602090815260408083209388168352929052205460ff165b806108625750836001600160a01b0316610a12846103e6565b6001600160a01b031614949350505050565b826001600160a01b0316610a37826105ec565b6001600160a01b031614610a9b5760405162461bcd60e51b815260206004820152602560248201527f4552433732313a207472616e736665722066726f6d20696e636f72726563742060448201526437bbb732b960d91b6064820152608401610482565b6001600160a01b038216610afd5760405162461bcd60e51b8152602060048201526024808201527f4552433732313a207472616e7366657220746f20746865207a65726f206164646044820152637265737360e01b6064820152608401610482565b610b0860008261091e565b6001600160a01b0383166000908152600360205260408120805460019290610b31908490611495565b90915550506001600160a01b0382166000908152600360205260408120805460019290610b5f908490611469565b909155505060008181526002602052604080822080546001600160a01b0319166001600160a01b0386811691821790925591518493918716917fddf252ad1be2c89b69c2b068fc378daa952ba7f163c4a11628f55a4df523b3ef91a4505050565b816001600160a01b0316836001600160a01b03161415610c225760405162461bcd60e51b815260206004820152601960248201527f4552433732313a20617070726f766520746f2063616c6c6572000000000000006044820152606401610482565b6001600160a01b03838116600081815260056020908152604080832094871680845294825291829020805460ff191686151590811790915591519182527f17307eab39ab6107e8899845ad3d59bd9653f200f220920489ca2b5937696c31910160405180910390a3505050565b610c9a848484610a24565b610ca684848484610d8a565b6107535760405162461bcd60e51b8152600401610482906113c9565b6060610ccd826108bf565b6000610ce460408051602081019091526000815290565b90506000815111610d045760405180602001604052806000815250610d2f565b80610d0e84610e97565b604051602001610d1f92919061134a565b6040516020818303038152906040525b9392505050565b80516a636f6e736f6c652e6c6f67602083016000808483855afa5050505050565b610d618383610fb1565b610d6e6000848484610d8a565b6105235760405162461bcd60e51b8152600401610482906113c9565b60006001600160a01b0384163b15610e8c57604051630a85bd0160e11b81526001600160a01b0385169063150b7a0290610dce903390899088908890600401611379565b602060405180830381600087803b158015610de857600080fd5b505af1925050508015610e18575060408051601f3d908101601f19168201909252610e15918101906112ea565b60015b610e72573d808015610e46576040519150601f19603f3d011682016040523d82523d6000602084013e610e4b565b606091505b508051610e6a5760405162461bcd60e51b8152600401610482906113c9565b805181602001fd5b6001600160e01b031916630a85bd0160e11b149050610862565b506001949350505050565b606081610ebb5750506040805180820190915260018152600360fc1b602082015290565b8160005b8115610ee55780610ecf81611513565b9150610ede9050600a83611481565b9150610ebf565b60008167ffffffffffffffff811115610f0e57634e487b7160e01b600052604160045260246000fd5b6040519080825280601f01601f191660200182016040528015610f38576020820181803683370190505b5090505b841561086257610f4d600183611495565b9150610f5a600a8661152e565b610f65906030611469565b60f81b818381518110610f8857634e487b7160e01b600052603260045260246000fd5b60200101906001600160f81b031916908160001a905350610faa600a86611481565b9450610f3c565b6001600160a01b0382166110075760405162461bcd60e51b815260206004820181905260248201527f4552433732313a206d696e7420746f20746865207a65726f20616464726573736044820152606401610482565b6000818152600260205260409020546001600160a01b03161561106c5760405162461bcd60e51b815260206004820152601c60248201527f4552433732313a20746f6b656e20616c7265616479206d696e746564000000006044820152606401610482565b6001600160a01b0382166000908152600360205260408120805460019290611095908490611469565b909155505060008181526002602052604080822080546001600160a01b0319166001600160a01b03861690811790915590518392907fddf252ad1be2c89b69c2b068fc378daa952ba7f163c4a11628f55a4df523b3ef908290a45050565b80356001600160a01b038116811461110a57600080fd5b919050565b600060208284031215611120578081fd5b610d2f826110f3565b6000806040838503121561113b578081fd5b611144836110f3565b9150611152602084016110f3565b90509250929050565b60008060006060848603121561116f578081fd5b611178846110f3565b9250611186602085016110f3565b9150604084013590509250925092565b600080600080608085870312156111ab578081fd5b6111b4856110f3565b93506111c2602086016110f3565b925060408501359150606085013567ffffffffffffffff808211156111e5578283fd5b818701915087601f8301126111f8578283fd5b81358181111561120a5761120a61156e565b604051601f8201601f19908116603f011681019083821181831017156112325761123261156e565b816040528281528a602084870101111561124a578586fd5b82602086016020830137918201602001949094529598949750929550505050565b6000806040838503121561127d578182fd5b611286836110f3565b91506020830135801515811461129a578182fd5b809150509250929050565b600080604083850312156112b7578182fd5b6112c0836110f3565b946020939093013593505050565b6000602082840312156112df578081fd5b8135610d2f81611584565b6000602082840312156112fb578081fd5b8151610d2f81611584565b600060208284031215611317578081fd5b5035919050565b600081518084526113368160208601602086016114ac565b601f01601f19169290920160200192915050565b6000835161135c8184602088016114ac565b8351908301906113708183602088016114ac565b01949350505050565b6001600160a01b03858116825284166020820152604081018390526080606082018190526000906113ac9083018461131e565b9695505050505050565b602081526000610d2f602083018461131e565b60208082526032908201527f4552433732313a207472616e7366657220746f206e6f6e20455243373231526560408201527131b2b4bb32b91034b6b83632b6b2b73a32b960711b606082015260800190565b6020808252602e908201527f4552433732313a2063616c6c6572206973206e6f7420746f6b656e206f776e6560408201526d1c881b9bdc88185c1c1c9bdd995960921b606082015260800190565b6000821982111561147c5761147c611542565b500190565b60008261149057611490611558565b500490565b6000828210156114a7576114a7611542565b500390565b60005b838110156114c75781810151838201526020016114af565b838111156107535750506000910152565b600181811c908216806114ec57607f821691505b6020821081141561150d57634e487b7160e01b600052602260045260246000fd5b50919050565b600060001982141561152757611527611542565b5060010190565b60008261153d5761153d611558565b500690565b634e487b7160e01b600052601160045260246000fd5b634e487b7160e01b600052601260045260246000fd5b634e487b7160e01b600052604160045260246000fd5b6001600160e01b0319811681146108bc57600080fdfea26469706673582212205e1defadb365f0fd37e4870301534228cb018b814e1821ff5dbea0a8451b85f164736f6c63430008040033",
  "linkReferences": {},
  "deployedLinkReferences": {}
}